:020000040800F2
:1000000000800120B5160008551600085716000894
:10001000591600085B1600085D1600080000000075
:100020000000000000000000000000005F16000853
:10003000611600080000000063160008651600083D
:100040000517000805170008051700080517000820
:100050000517000805170008051700080517000810
:100060000517000805170008051700080517000800
:1000700005170008051700080517000805170008F0
:100080000517000805170008051700080000000004
:10009000000000000000000000000000051700083C
:1000A00005170008051700080517000805170008C0
:1000B00005170008051700080517000805170008B0
:1000C00005170008051700080517000805170008A0
:1000D00005170008051700080517000800000000B4
:1000E00005170008051700080517000800000000A4
:1000F00000000000000000000000000005170008DC
:100100000000000005170008051700080517000883
:1001100000000000000000000000000000000000DF
:10012000051700080517000805170008051700083F
:10013000051700080000000000000000000000009B
:10014000000000000000000000000000051700088B
:10015000051700080517000805170008051700080F
:100160000517000805170008000000000000000047
:10017000000000000000000000000000000000007F
:10018000000000000517000800000000000000004B
:040190000517000847
:1001980010B5054C237833B9044B13B10448AFF3B9
:1001A80000800123237010BD04000020000000001F
:1001B8006017000808B5034B1BB103490348AFF3A8
:1001C800008008BD0000000008000020601700083B
:1001D80081F0004102E000BF83F0004330B54FEAF0
:1001E80041044FEA430594EA050F08BF90EA020F5D
:1001F8001FBF54EA000C55EA020C7FEA645C7FEAF0
:10020800655C00F0E2804FEA5454D4EB5555B8BF12
:100218006D420CDD2C4480EA020281EA030382EA83
:10022800000083EA010180EA020281EA0303362D15
:1002380088BF30BD11F0004F4FEA01314FF4801CE8
:100248004CEA113102D0404261EB410113F0004FFA
:100258004FEA03334CEA133302D0524263EB4303B1
:1002680094EA050F00F0A780A4F10104D5F1200E4F
:100278000DDB02FA0EFC22FA05F2801841F10001AA
:1002880003FA0EF2801843FA05F359410EE0A5F17E
:1002980020050EF1200E012A03FA0EFC28BF4CF0AF
:1002A800020C43FA05F3C01851EBE37101F0004565
:1002B80007D54FF0000EDCF1000C7EEB00006EEB72
:1002C8000101B1F5801F1BD3B1F5001F0CD34908FC
:1002D8005FEA30004FEA3C0C04F101044FEA445253
:1002E80012F5800F80F09A80BCF1004F08BF5FEADA
:1002F800500C50F1000041EB045141EA050130BDBA
:100308005FEA4C0C404141EB010111F4801FA4F15C
:100318000104E9D191F0000F04BF01460020B1FAB1
:1003280081F308BF2033A3F10B03B3F120020CDAE9
:100338000C3208DD02F1140CC2F10C0201FA0CF0C7
:1003480021FA02F10CE002F11402D8BFC2F1200C2C
:1003580001FA02F120FA0CFCDCBF41EA0C019040E2
:10036800E41AA2BF01EB0451294330BD6FEA04042B
:100378001F3C1CDA0C340EDC04F11404C4F1200216
:1003880020FA04F001FA02F340EA030021FA04F328
:1003980045EA030130BDC4F10C04C4F1200220FA7F
:1003A80002F001FA04F340EA0300294630BD21FABD
:1003B80004F0294630BD94F0000F83F4801306BF83
:1003C80081F480110134013D4EE77FEA645C18BF77
:1003D8007FEA655C29D094EA050F08BF90EA020F0E
:1003E80005D054EA000C04BF1946104630BD91EA06
:1003F800030F1EBF0021002030BD5FEA545C05D109
:100408004000494128BF41F0004130BD14F5800447
:100418003CBF01F5801130BD01F0004545F0FE41BB
:1004280041F470014FF0000030BD7FEA645C1ABFF0
:10043800194610467FEA655C1CBF0B46024650EA27
:10044800013406BF52EA033591EA030F41F4002153
:1004580030BD00BF90F0000F04BF0021704730B5D9
:100468004FF4806404F132044FF000054FF00001AE
:1004780050E700BF90F0000F04BF0021704730B56F
:100488004FF4806404F1320410F0004548BF404244
:100498004FF000013EE700BF42004FEAE2014FEA99
:1004A80031014FEA02701FBF12F07F4393F07F4F74
:1004B80081F06051704732F07F4208BF704793F077
:1004C8007F4F04BF41F40021704730B54FF460748A
:1004D80001F0004521F000411CE700BF50EA01028D
:1004E80008BF704730B54FF000050AE050EA010236
:1004F80008BF704730B511F0004502D5404261EBA6
:1005080041014FF4806404F132045FEA915C3FF4E6
:10051800D8AE4FF003025FEADC0C18BF03325FEA83
:10052800DC0C18BF033202EBDC02C2F1200300FA34
:1005380003FC20FA02F001FA03FE40EA0E0021FA59
:1005480002F11444BDE600BF70B54FF0FF0C4CF447
:10055800E06C1CEA11541DBF1CEA135594EA0C0FF9
:1005680095EA0C0F00F0DEF82C4481EA030621EA34
:100578004C5123EA4C5350EA013518BF52EA03356F
:1005880041F4801143F4801338D0A0FB02CE4FF021
:100598000005E1FB02E506F00042E0FB03E54FF051
:1005A8000006E1FB03569CF0000F18BF4EF0010E49
:1005B800A4F1FF04B6F5007F64F5407404D25FEA45
:1005C8004E0E6D4146EB060642EAC62141EA5551F8
:1005D8004FEAC52040EA5E504FEACE2EB4F1FD0C3A
:1005E80088BFBCF5E06F1ED8BEF1004F08BF5FEAB8
:1005F800500E50F1000041EB045170BD06F000466A
:1006080046EA010140EA020081EA0301B4EB5C0416
:10061800C2BFD4EB0C0541EA045170BD41F480110E
:100628004FF0000E013C00F3AB8014F1360FDEBF33
:10063800002001F0004170BDC4F10004203C35DA0F
:100648000C341BDC04F11404C4F1200500FA05F392
:1006580020FA04F001FA05F240EA020001F0004233
:1006680021F0004110EBD37021FA04F642EB0601A9
:100678005EEA430E08BF20EAD37070BDC4F10C04D3
:10068800C4F1200500FA04F320FA05F001FA04F297
:1006980040EA020001F0004110EBD37041F1000183
:1006A8005EEA430E08BF20EAD37070BDC4F120058E
:1006B80000FA05F24EEA020E20FA04F301FA05F2F6
:1006C80043EA020321FA04F001F0004121FA04F29E
:1006D80020EA020000EBD3705EEA430E08BF20EA6E
:1006E800D37070BD94F0000F0FD101F000464000A8
:1006F80041EB010111F4801F08BF013CF7D041EA2A
:10070800060195F0000F18BF704703F0004652002D
:1007180043EB030313F4801F08BF013DF7D043EAFE
:100728000603704794EA0C0F0CEA135518BF95EAB4
:100738000C0F0CD050EA410618BF52EA4306D1D13B
:1007480081EA030101F000414FF0000070BD50EA5A
:10075800410606BF1046194652EA430619D094EAE4
:100768000C0F02D150EA013613D195EA0C0F05D1CE
:1007780052EA03361CBF104619460AD181EA030122
:1007880001F0004141F0FE4141F470014FF00000DA
:1007980070BD41F0FE4141F4780170BD70B54FF075
:1007A800FF0C4CF4E06C1CEA11541DBF1CEA1355F5
:1007B80094EA0C0F95EA0C0F00F0A7F8A4EB0504D7
:1007C80081EA030E52EA03354FEA013100F08880CE
:1007D8004FEA03334FF0805545EA131343EA126397
:1007E8004FEA022245EA111545EA10654FEA00264C
:1007F8000EF000419D4208BF964244F1FD0404F505
:10080800407402D25B084FEA3202B61A65EB030560
:100818005B084FEA32024FF480104FF4002CB6EB1D
:10082800020E75EB030E22BFB61A754640EA0C009D
:100838005B084FEA3202B6EB020E75EB030E22BFDD
:10084800B61A754640EA5C005B084FEA3202B6EB1E
:10085800020E75EB030E22BFB61A754640EA9C00DD
:100868005B084FEA3202B6EB020E75EB030E22BFAD
:10087800B61A754640EADC0055EA060E18D04FEA6B
:10088800051545EA16754FEA06164FEAC30343EA0B
:1008980052734FEAC2025FEA1C1CC0D111F4801FD8
:1008A8000BD141EA00014FF000004FF0004CB6E7D1
:1008B80011F4801F04BF01430020B4F1FD0C88BF70
:1008C800BCF5E06F3FF6AFAEB5EB030C04BFB6EB7B
:1008D800020C5FEA500C50F1000041EB045170BD6E
:1008E8000EF0004E4EEA113114EB5C04C2BFD4EB9B
:1008F8000C0541EA045170BD41F480114FF0000E1F
:10090800013C90E645EA060E8DE60CEA135594EA9A
:100918000C0F08BF95EA0C0F3FF43BAF94EA0C0F9D
:100928000AD150EA01347FF434AF95EA0C0F7FF412
:1009380025AF104619462CE795EA0C0F06D152EA66
:1009480003353FF4FDAE1046194622E750EA41064A
:1009580018BF52EA43067FF4C5AE50EA41047FF45B
:100968000DAF52EA43057FF4EBAE12E74FEA4102BE
:1009780012F5001215D211D56FF47873B3EB6252E9
:1009880012D94FEAC12343F0004343EA505311F010
:10099800004F23FA02F018BF404270474FF00000A2
:1009A800704750EA013005D111F0004008BF6FF0E0
:1009B800004070474FF00000704700BF074B9B682E
:1009C80013F0010F07D10B68426822F44032134339
:1009D8004360002070470120704700BF002001409D
:1009E800836813F0010F14D110B4436823F04073E7
:1009F80023F480730A688C68224313434360836836
:100A080023F400634A681343836000205DF8044BB5
:100A180070470120704700004B68826812F0010F90
:100A280024D110B4E3B1426822F468428C682343AD
:100A38001343436083680E4A1A400B6803F07063DF
:100A4800CC6823430C692343134383604B68C26A11
:100A580022F470021343C36200205DF8044B704710
:100A6800426822F4684213434360E3E70120704779
:100A7800FDFCFFC003460279002A57D00268002A0D
:100A880061D0417901291CD019B1022924D0012053
:100A980009E02E49486820EA02024A601A68086894
:100AA80002430A6000209A79002A4ED010B4022A24
:100AB80027D0032A30D0012A18D001205DF8044B32
:100AC80070472249086820EA02020A601A684868E2
:100AD80002434A600020E6E71C49086802430A60AE
:100AE8001A68486802434A600020DCE71C68174A15
:100AF800D16821EA0401D1601B6891680B439360B7
:100B0800DCE71C68114A916821EA040191601B68BE
:100B1800D1680B43D360D1E719680C4A9468214324
:100B280091601B68D1680B43D360C7E70068074A28
:100B3800116821EA000111601968536823EA01036A
:100B4800536000207047002070477047003C014008
:100B5800F0B40A6892FAA2F2B2FA82F218E00E69C8
:100B6800C46893FAA3F5B5FA85F56D00032707FA6B
:100B780005F524EA050493FAA3F5B5FA85F56D00A1
:100B880006FA05F52C43C4604C68022C36D00132B5
:100B98000B6833FA02F464D0012494402340F6D061
:100BA8004E68046893FAA3F5B5FA85F56D00032736
:100BB80007FA05F524EA050493FAA3F5B5FA85F5CD
:100BC8006D0006FA05F52C4304604C68013C012CC5
:100BD800C5D88E68846893FAA3F5B5FA85F56D00D3
:100BE80007FA05F524EA050493FAA3F5B5FA85F59D
:100BF8006D0006FA05F52C438460B0E793FAA3F478
:100C0800B4FA84F4072C15D84D69046A93FAA3F64C
:100C1800B6FA86F6B6000F2707FA06F624EA06049F
:100C280093FAA3F3B3FA83F39B0005FA03F3234380
:100C38000362ACE74C69456A1B0A93FAA3F6B6FA55
:100C480086F6B6000F2707FA06F625EA060593FA90
:100C5800A3F3B3FA83F39B0004FA03F32B43436231
:100C680095E74A68013A012A02D90020F0BC70478A
:100C7800C968426822EA030201FB03F31343436095
:100C8800F3E70000034B9B68C3F30313024AD35CEA
:100C9800D84070470038024078170008034B9B681B
:100CA800C3F38223024AD35CD8407047003802401D
:100CB80088170008034B9B68C3F34233024AD35C8E
:100CC800D840704700380240881700080F4B5B680F
:100CD80003F4800323B90E4B082803D00020704783
:100CE8000C4BF9E7094A506800F03F00B3FBF0F3FA
:100CF8005068C0F3881000FB03F05368C3F3014346
:100D080001335B00B0FBF3F0704700BF00380240CE
:100D18000024F40000127A0008B5084B9B6803F021
:100D28000C03042B07D0082B01D0054808BD082068
:100D3800FFF7CCFFFAE70348F8E700BF00380240A6
:100D48000024F40000127A0010B50446FFF7E4FF0F
:100D58002060FFF797FF6060FFF7A0FFA060606862
:100D6800FFF7A8FFE06010BD30B4036A23F0010369
:100D78000362036A4468826922F073020D682A4399
:100D880023F002030D692B4323F001034D682B4325
:100D98000F4DA84207D044608261CA68426303626B
:100DA800002030BC704723F008034D6943EA8503EF
:100DB80023F004038D6843EA850324F480748D6965
:100DC8002C4324F40074CD6944EA4504E3E700BFEA
:100DD8000000014030B4036A23F010030362036A81
:100DE8004468826922F4E6420D6842EA052223F04B
:100DF80020030D6943EA051323F010034D6843EA05
:100E08000513104DA84207D044608261CA68826306
:100E18000362002030BC704723F080034D6943EA29
:100E2800851323F040038D6843EA851324F4806416
:100E38008D6944EA850424F40064CD6944EAC50454
:100E4800E2E700BF0000014030B4036A23F4807376
:100E58000362036A4468C26922F073020D682A4378
:100E680023F400730D6943EA052323F480734D6866
:100E780043EA05230F4DA84207D04460C261CA68FF
:100E8800C2630362002030BC704723F400634D69DD
:100E980043EA852323F480638D6843EA852324F499
:100EA80080548D6944EA051424F40054CD6944EA59
:100EB8004514E2E70000014030B4036A23F480538C
:100EC8000362036A4468C26922F4E6420D6842EA92
:100ED800052223F400530D6943EA053323F48053B4
:100EE8004D6843EA0533084DA84207D04460C26103
:100EF800CA6802640362002030BC704724F480444E
:100F08008D6944EA8514F1E7000001400368244A2A
:100F180090420ED0B0F1804F0BD0A2F57C429042A7
:100F280007D002F58062904203D002F580629042B9
:100F380003D123F070034A681343194A90421AD028
:100F4800B0F1804F17D0A2F57C42904213D002F541
:100F5800806290420FD002F5806290420BD002F579
:100F68009A32904207D002F58062904203D002F58F
:100F78008062904203D123F44073CA68134303602C
:100F88008B68C3620B888362054B984205D043691E
:100F980043F001034361002070470B7C0363F6E7CD
:100FA8000000014008B5102910D009D9B1F5807F9B
:100FB80010D0B1F5805F11D11146FFF77DFF04E035
:100FC80001290BD11146FFF7CFFE08BD1146FFF7E7
:100FD80001FFFAE71146FFF737FFF6E70120F4E7CC
:100FE800C36813F4005F01D00120704730B585B0A5
:100FF8000D460446C36823F4164323F00C034A68DD
:10100800C9680A4329690A43A9690A431343C360A3
:10101800AB68026922F44052134303616B69426969
:1010280022F44072134343616846FFF78DFE304B4C
:101038009C4208D02F4B9C420CD02F4B9C420BD08B
:10104800012005B030BD039B002B4ED02A682AB979
:101058000120F6E7029BF7E7039BF5E7A969B1F5DD
:10106800004F20D003EB830303EB83039200B3FB11
:10107800F2F3224DA5FB03204009020191B264223C
:1010880002FB103213013233A5FB0323C3F34F13C2
:1010980003F0F0020A4492B203F00F0313449BB228
:1010A800A3600020CDE703EB830303EB8303520027
:1010B800B3FBF2F3114DA5FB03204009020191B2E5
:1010C800642202FB1032D3003233A5FB0323C3F39F
:1010D8004F135A0002F4F8720A4492B203F007035D
:1010E80013449BB2A3600020ABE70120A9E700BF2F
:1010F8000010014000440040001401401F85EB51DE
:10110800054BA3FB003080090138044B58600022CE
:101118009A6005221A607047D34D621010E000E013
:10112800014B1860704700BF00000020F0B58DB07B
:1011380000240B9404940594069407940894099445
:10114800354B1A6B42F004021A631A6B02F0040260
:101158000392039A1A6B42F080021A631A6B02F028
:1011680080020292029A1A6B42F001021A631A6B09
:1011780002F001020192019A1A6B42F002021A630C
:101188001B6B03F002030093009B244D4FF09073F8
:10119800AB612348426922F0F002F02393FAA3F3EB
:1011A800B3FA83F3022101FA03F3134343614FF4C3
:1011B80000560A9601278DF82C708DF82E100AA873
:1011C800FFF758FC174AD06896FAA6F3B3FA83F3E8
:1011D800BB40032101FA03F320EA030396FAA6F0C1
:1011E800D360106896FAA6F3B3FA83F3BB4001FA0A
:1011F80003F320EA030396FAA6F613604FF49073FC
:101208000493059706940794089404A92846FFF7C1
:101218009FFC0DB0F0BD00BF003802400000024046
:101228000038014000080240F0B593B000240F9444
:10123800109411940A940B940C940D940E940994A0
:101248000594069407940894354B5A6C42F48072BE
:101258005A645A6C02F480720292029A1A6B42F033
:1012680001021A631B6B03F001030193019B022720
:1012780003970323049303A92A48FFF769FC4FF057
:1012880000750F9510941194274E0FA93046FFF75B
:10129800A7FB0A940B940C940D970E940AA9304658
:1012A800FFF7BAFBB36823F48063B360736823F075
:1012B8002003736012A94FF4803341F8243D1B4882
:1012C800FFF77CFB1A494FF4407393FAA3F3B3FA80
:1012D80083F34FF40072DA4051F8223023F01F03F1
:1012E80043F0010341F82230124C95FAA5F3B3FA02
:1012F80083F3DD4054F825304FF0F87292FAA2F0EB
:10130800B0FA80F04FF4401121FA00F00721814033
:1013180023EA010392FAA2F244F8253013B0F0BD93
:101328000038024000000240002001400023014034
:101338002C2001400C20014030B58FB00025CDF89D
:101348002650CDF82A50CDF82E50CDF83250ADF8B1
:1013580036502022294601A800F0F6F91B4B1A6CDA
:1013680042F002021A641B6C03F002030093009B14
:101378006323ADF824304FF6FF730B93144C09A97F
:101388002046FFF7C3FD236823F080032360A3688A
:1013980023F4804323F00703A36001950295039586
:1013A8005D230493059501AA01212046FFF7FAFD64
:1013B800A36923F00403A361636823F070036360E7
:1013C800A36823F08003A3600FB030BD003802404B
:1013D8000004004030B591B0002409940A940B949D
:1013E8000C940D940E940F940594069407941D4B39
:1013F8001A6C42F400321A641A6C02F40032029237
:10140800029A1A6B42F001021A631B6B03F0010384
:101418000193019B0C25039502230493072308934A
:101428000DEB05011048FFF793FB4FF4E1330993E7
:101438000A940B940C940D950E940F940B4C09A9D7
:101448002046FFF7CDFD236923F4904323616369A8
:1014580023F02A036361E36843F40053E36011B0A7
:1014680030BD00BF00380240000002400044004088
:1014780010B5344A136823F00F0343F002031360D6
:101488001368A2F5E632136823F4404343F400439B
:10149800136002F5E432136823F0F80343F0800385
:1014A8001360136843F001031360274B1B6813F0A4
:1014B800020FFAD0244A5168244B0B4043F4A84346
:1014C80043F010035360536823F4403343F48033EC
:1014D8005360136843F0807313601B4B1B6813F051
:1014E800007FFAD0184B9A6822F0F0029A609A6846
:1014F80022F4E05242F480529A609A6822F46042E0
:101508009A609A6822F0030242F002029A600E4B37
:101518009B6803F00C03082BF9D10D4C2046FFF70C
:10152800EFFD0C4A136843F0040313602046FFF7ED
:10153800F7FD054AD2F88C3023F08073C2F88C305E
:1015480010BD00BF003C0240003802400080BFFFD1
:1015580000BD010510E000E010B582B0344B5A6CB4
:1015680042F480425A645A6C02F480420192019A11
:101578001A6C42F080521A641B6C03F0805300937B
:10158800009B2C49CA6822F4E0621204120C2A4B10
:101598001343CB60FFF76CFFFFF7C8FDFFF744FE6E
:1015A800FFF7CAFEFFF716FF244A136843F001034A
:1015B8001360234B9A6842F001029A609A6842F0DD
:1015C80080429A601E4B1B6813F0020F17D01C4A0A
:1015D800D36C116821F00201116003EB8300C3EBA7
:1015E8004010FEF747FF10A3D3E90023FEF7ACFF36
:1015F8000022144BFEF7F2FDFFF7B8F904460F4B33
:101608001B6913F0020FDDD00C4B1A6922F002029D
:101618001A615A6B22445A630B4A536983F48073E4
:101628005361CFE7AFF3008039B4C876BE9F8A3FD5
:101638000038024000ED00E00007FA050004004011
:101648000020014000405740000002407047FEE77C
:10165800FEE7FEE7FEE770477047704770470000F7
:101668000F49D1F8883043F47003C1F888300D4B26
:101678001A6842F001021A60002098601A6822F085
:10168800847222F480321A60074A5A601A6822F477
:1016980080221A60D8604FF000638B60704700BFEB
:1016A80000ED00E00038024010300024DFF834D0AC
:1016B800002103E00C4B5B58435004310B480C4BA2
:1016C80042189A42F6D30B4A02E0002342F8043B40
:1016D800094B9A42F9D3FFF7C3FF00F011F8FFF75F
:1016E8003BFF704700800120981700080000002089
:1016F800040000200400002020000020FEE7000075
:1017080070B50D4E0D4CA41BA4100025A54209D19F
:101718000B4E0C4C00F020F8A41BA4100025A54289
:1017280005D170BD56F8253098470135EEE756F8D3
:10173800253098470135F2E7901700089017000800
:10174800901700089417000802440346934200D1FA
:10175800704703F8011BF9E7F8B500BFF8BC08BCEF
:101768009E467047F8B500BFF8BC08BC9E46704757
:101778000000000000000000010203040607080939
:0817880000000000010203044F
:04179000BD0100088F
:0417940099010008AF
:041798000024F40035
:04000005080016B524
:00000001FF
