:020000040800F2
:1000000000800120010C00087D0A00087F0A00081A
:10001000810A0008830A0008850A00080000000021
:10002000000000000000000000000000870A000837
:10003000890A0008000000008B0A00088D0A0008E9
:10004000510C0008510C0008510C0008510C00081C
:10005000510C0008510C0008510C0008510C00080C
:10006000510C0008510C0008510C0008510C0008FC
:10007000510C0008510C0008510C0008510C0008EC
:10008000510C0008510C0008510C00080000000041
:10009000000000000000000000000000510C0008FB
:1000A000510C0008510C0008510C0008510C0008BC
:1000B000510C0008910A0008510C0008510C00086E
:1000C000510C0008510C0008510C0008510C00089C
:1000D000510C0008510C0008510C000800000000F1
:1000E000510C0008510C0008510C000800000000E1
:1000F000000000000000000000000000510C00089B
:1001000000000000510C0008510C0008510C0008C0
:1001100000000000000000000000000000000000DF
:10012000510C0008510C0008510C0008510C00083B
:10013000510C00080000000000000000000000005A
:10014000000000000000000000000000510C00084A
:10015000510C0008510C0008510C0008510C00080B
:10016000510C0008510C00080000000000000000C5
:10017000000000000000000000000000000000007F
:1001800000000000510C000800000000000000000A
:04019000510C000806
:1001940010B5054C237833B9044B13B10448AFF3BD
:1001A40000800123237010BD100000200000000017
:1001B4009C0C000808B5034B1BB103490348AFF37B
:1001C400008008BD00000000140000209C0C000802
:1001D40003460279002A57D00268002A61D0417987
:1001E40001291CD019B1022924D0012009E02E498B
:1001F400486820EA02024A601A68086802430A60F2
:1002040000209A79002A4ED010B4022A27D0032A5B
:1002140030D0012A18D001205DF8044B70472249E0
:10022400086820EA02020A601A68486802434A60C1
:100234000020E6E71C49086802430A601A68486817
:1002440002434A600020DCE71C68174AD16821EAAF
:100254000401D1601B6891680B439360DCE71C6860
:10026400114A916821EA040191601B68D1680B432B
:10027400D360D1E719680C4A9468214391601B68E4
:10028400D1680B43D360C7E70068074A116821EAC5
:10029400000111601968536823EA010353600020C8
:1002A4007047002070477047003C0140F0B40A6872
:1002B40092FAA2F2B2FA82F218E00E69C46893FAD2
:1002C400A3F5B5FA85F56D00032707FA05F524EAC9
:1002D400050493FAA3F5B5FA85F56D0006FA05F55C
:1002E4002C43C4604C68022C36D001320B6833FABC
:1002F40002F464D0012494402340F6D04E6804688C
:1003040093FAA3F5B5FA85F56D00032707FA05F509
:1003140024EA050493FAA3F5B5FA85F56D0006FA07
:1003240005F52C4304604C68013C012CC5D88E684B
:10033400846893FAA3F5B5FA85F56D0007FA05F517
:1003440024EA050493FAA3F5B5FA85F56D0006FAD7
:1003540005F52C438460B0E793FAA3F4B4FA84F46B
:10036400072C15D84D69046A93FAA3F6B6FA86F6F3
:10037400B6000F2707FA06F624EA060493FAA3F355
:10038400B3FA83F39B0005FA03F323430362ACE758
:100394004C69456A1B0A93FAA3F6B6FA86F6B600C8
:1003A4000F2707FA06F625EA060593FAA3F3B3FA2C
:1003B40083F39B0004FA03F32B43436295E74A68F3
:1003C400013A012A02D90020F0BC7047C96842688A
:1003D40022EA030201FB03F313434360F3E7000043
:1003E400034B9B68C3F30313024AD35CD8407047A2
:1003F40000380240B40C0008034B9B68C3F382230B
:10040400024AD35CD840704700380240C40C00084C
:10041400034B9B68C3F34233024AD35CD840704712
:1004240000380240C40C00080F4B5B6803F48003DF
:1004340023B90E4B082803D0002070470C4BF9E772
:10044400094A506800F03F00B3FBF0F35068C0F372
:10045400881000FB03F05368C3F3014301335B00CE
:10046400B0FBF3F0704700BF003802400024F400F2
:1004740000127A0008B5084B9B6803F00C03042BA8
:1004840007D0082B01D0054808BD0820FFF7CCFF92
:10049400FAE70348F8E700BF003802400024F400FC
:1004A40000127A0010B50446FFF7E4FF2060FFF75E
:1004B40097FF6060FFF7A0FFA0606068FFF7A8FFE8
:1004C400E06010BD0368244A90420ED0B0F1804F22
:1004D4000BD0A2F57C42904207D002F58062904294
:1004E40003D002F58062904203D123F070034A687E
:1004F4001343194A90421AD0B0F1804F17D0A2F595
:100504007C42904213D002F5806290420FD002F5F3
:10051400806290420BD002F59A32904207D002F5E5
:100524008062904203D002F58062904203D123F4AA
:100534004073CA68134303608B68C3620B88836289
:10054400054B984205D0436943F001034361002001
:1005540070470B7C0363F6E700000140C36813F4A3
:10056400005F01D00120704730B585B00D460446C8
:10057400C36823F4164323F00C034A68C9680A438A
:1005840029690A43A9690A431343C360AB68026932
:1005940022F44052134303616B69426922F44072AE
:1005A400134343616846FFF77DFF304B9C4208D0FC
:1005B4002F4B9C420CD02F4B9C420BD0012005B0FA
:1005C40030BD039B002B4ED02A682AB90120F6E7E0
:1005D400029BF7E7039BF5E7A969B1F5004F20D02B
:1005E40003EB830303EB83039200B3FBF2F3224D8B
:1005F400A5FB03204009020191B2642202FB1032E0
:1006040013013233A5FB0323C3F34F1303F0F002AA
:100614000A4492B203F00F0313449BB2A360002078
:10062400CDE703EB830303EB83035200B3FBF2F345
:10063400114DA5FB03204009020191B2642202FB83
:100644001032D3003233A5FB0323C3F34F135A00F4
:1006540002F4F8720A4492B203F0070313449BB203
:10066400A3600020ABE70120A9E700BF0010014010
:1006740000440040001401401F85EB51054BA3FBCF
:10068400003080090138044B586000229A6005222A
:100694001A607047D34D621010E000E0014B1860FF
:1006A400704700BF0C000020F0B58DB000240B94FF
:1006B400049405940694079408940994344B1A6B93
:1006C40042F004021A631A6B02F004020392039AC2
:1006D4001A6B42F080021A631A6B02F080020292D3
:1006E400029A1A6B42F001021A631A6B02F00102B9
:1006F4000192019A1A6B42F002021A631B6B03F017
:1007040002030093009B234D4FF40013AB61224876
:10071400426922F0F002F02393FAA3F3B3FA83F3CD
:10072400022101FA03F3134343614FF400560A967E
:1007340001278DF82C708DF82E100AA8FFF748FDBC
:10074400164AD06896FAA6F3B3FA83F3BB400321A2
:1007540001FA03F320EA030396FAA6F0D3601068C3
:1007640096FAA6F3B3FA83F3BB4001FA03F320EA43
:10077400030396FAA6F613602023049305970694C0
:100784000794089404A92846FFF790FD0DB0F0BD26
:1007940000380240000002400038014000080240D6
:1007A40010B58EB0002409940A940B940C940D9403
:1007B4000594069407942C4B1A6C42F002021A64B6
:1007C4001A6C02F002020292029A1A6B42F00102BF
:1007D4001A631B6B03F001030193019B40230393F2
:1007E40002230493089303A92048FFF75FFD204BDD
:1007F400DB68204B83F81D434FF000521A6040F22F
:10080400CF73ADF824300A944FF6FF730B930C9416
:10081400194C09A92046FFF755FE236823F08003ED
:100824002360A36823F4804323F00703A360636871
:1008340023F070036360A36823F08003A360A369BB
:1008440023F0030343F00103A361A36923F00C0322
:10085400A361A36923F0F003A361236A43F00A03AD
:1008640023620EB010BD00BF0038024000000240F9
:1008740000ED00E000E100E00004004030B591B07C
:10088400002409940A940B940C940D940E940F94E0
:100894000594069407941D4B1A6C42F400321A64B2
:1008A4001A6C02F400320292029A1A6B42F00102AC
:1008B4001A631B6B03F001030193019B0C25039541
:1008C40002230493072308930DEB05011048FFF757
:1008D400EDFC4FF4E13309930A940B940C940D95B9
:1008E4000E940F940B4C09A92046FFF737FE236999
:1008F40023F490432361636923F02A036361E3686B
:1009040043F40053E36011B030BD00BF003802402F
:10091400000002400044004010B5344A136823F03C
:100924000F0343F0020313601368A2F5E632136861
:1009340023F4404343F40043136002F5E4321368A4
:1009440023F0F80343F080031360136843F00103BA
:100954001360274B1B6813F0020FFAD0244A516826
:10096400244B0B4043F4A84343F0100353605368F3
:1009740023F4403343F480335360136843F08073AB
:1009840013601B4B1B6813F0007FFAD0184B9A6856
:1009940022F0F0029A609A6822F4E05242F4805203
:1009A4009A609A6822F460429A609A6822F003027C
:1009B40042F002029A600E4B9B6803F00C03082B72
:1009C400F9D10D4C2046FFF759FE0C4A136843F049
:1009D400040313602046FFF761FE054AD2F88C3009
:1009E40023F08073C2F88C3010BD00BF003C02407D
:1009F400003802400080BFFF00BD010510E000E0A8
:100A040000B583B0184B5A6C42F480425A645A6C55
:100A140002F480420192019A1A6C42F080521A64E4
:100A24001B6C03F080530093009B1049CA6822F4A6
:100A3400E0621204120C0E4B1343CB60FFF76CFF01
:100A4400FFF732FEFFF7ACFEFFF718FF094B1A68F9
:100A540042F001021A60DA6842F00202DA601A6AAD
:100A640042F001021A62FEE70038024000ED00E0A5
:100A74000007FA05000400407047FEE7FEE7FEE7C2
:100A8400FEE770477047704770470000454B1B698D
:100A940013F0020F00F08480424B6FF002021A61DF
:100AA40003F5FE331B6913F0400F75D03E4B1B68F2
:100AB400012B06D03B4B5A6B3B4B1A6101221A6047
:100AC4007047384B5A6B384B5A609B689A4233DDF7
:100AD400D21A3648016801FB02F207EE902AF8EEBA
:100AE400E77AD0ED016A87EEA67A2F4A82ED037A7F
:100AF4002D4A1269934237DD9B1A2C490A6802FB7E
:100B040003F307EE903AF8EEE77AD1ED016A87EE47
:100B1400A67A254B83ED057A234B93ED057AD3ED25
:100B2400037A77EE277AC3ED067AC7EE276AC3ED18
:100B3400076A00221A607047D21A07EE902AF8EE6C
:100B4400E77A1A4A92ED027A77EE877A92ED007A82
:100B5400B8EEC77A67EE277AD2ED016A87EEA67AF5
:100B6400114A82ED037AC3E79B1A07EE903AF8EE36
:100B7400E77A0E4B93ED027A77EE877A93ED007A5B
:100B8400B8EEC77A67EE277AD3ED016A87EEA67AC4
:100B9400054B83ED057ABFE7024B5A6B024B9A6013
:100BA400704700BF000400402C000020000000201B
:100BB4000F49D1F8883043F47003C1F888300D4BE5
:100BC4001A6842F001021A60002098601A6822F044
:100BD400847222F480321A60074A5A601A6822F436
:100BE40080221A60D8604FF000638B60704700BFAA
:100BF40000ED00E00038024010300024DFF834D06B
:100C0400002103E00C4B5B58435004310B480C4B60
:100C140042189A42F6D30B4A02E0002342F8043BFE
:100C2400094B9A42F9D3FFF7C3FF00F011F8FFF71D
:100C3400E7FE704700800120D40C0008000000206B
:100C440010000020100000204C000020FEE70000EF
:100C540070B50D4E0D4CA41BA4100025A54209D15E
:100C64000B4E0C4C00F018F8A41BA4100025A54250
:100C740005D170BD56F8253098470135EEE756F892
:100C8400253098470135F2E7CC0C0008CC0C00085D
:100C9400CC0C0008D00C0008F8B500BFF8BC08BCA8
:100CA4009E467047F8B500BFF8BC08BC9E46704726
:100CB4000000000000000000010203040607080908
:080CC40000000000010203041E
:040CCC00B901000862
:040CD0009501000882
:100CD400CF070000A037A04C00FF7F470024F4009A
:0400000508000C01E2
:00000001FF
