:020000040800F2
:1000000000800120D922000875220008772200080C
:10001000792200087B2200087D22000800000000F1
:100020000000000000000000000000007F22000827
:1000300081220008000000008322000885220008B9
:100040002923000829230008292300082923000860
:100050002923000829230008292300082923000850
:100060002923000829230008292300082923000840
:100070002923000829230008292300082923000830
:100080002923000829230008292300080000000074
:10009000000000000000000000000000292300080C
:1000A0002923000829230008292300082923000800
:1000B00029230008292300082923000829230008F0
:1000C00029230008292300082923000829230008E0
:1000D0002923000829230008292300080000000024
:1000E0002923000829230008292300080000000014
:1000F00000000000000000000000000029230008AC
:1001000000000000292300082923000829230008F3
:1001100000000000000000000000000000000000DF
:10012000292300082923000829230008292300087F
:10013000292300080000000000000000000000006B
:10014000000000000000000000000000292300085B
:10015000292300082923000829230008292300084F
:1001600029230008292300080000000000000000E7
:10017000000000000000000000000000000000007F
:10018000000000002923000800000000000000001B
:040190002923000817
:1001980010B5054C237833B9044B13B10448AFF3B9
:1001A80000800123237010BD0C0000200000000017
:1001B8008423000808B5034B1BB103490348AFF378
:1001C800008008BD00000000100000208423000803
:1001D80081F0004102E000BF83F0004330B54FEAF0
:1001E80041044FEA430594EA050F08BF90EA020F5D
:1001F8001FBF54EA000C55EA020C7FEA645C7FEAF0
:10020800655C00F0E2804FEA5454D4EB5555B8BF12
:100218006D420CDD2C4480EA020281EA030382EA83
:10022800000083EA010180EA020281EA0303362D15
:1002380088BF30BD11F0004F4FEA01314FF4801CE8
:100248004CEA113102D0404261EB410113F0004FFA
:100258004FEA03334CEA133302D0524263EB4303B1
:1002680094EA050F00F0A780A4F10104D5F1200E4F
:100278000DDB02FA0EFC22FA05F2801841F10001AA
:1002880003FA0EF2801843FA05F359410EE0A5F17E
:1002980020050EF1200E012A03FA0EFC28BF4CF0AF
:1002A800020C43FA05F3C01851EBE37101F0004565
:1002B80007D54FF0000EDCF1000C7EEB00006EEB72
:1002C8000101B1F5801F1BD3B1F5001F0CD34908FC
:1002D8005FEA30004FEA3C0C04F101044FEA445253
:1002E80012F5800F80F09A80BCF1004F08BF5FEADA
:1002F800500C50F1000041EB045141EA050130BDBA
:100308005FEA4C0C404141EB010111F4801FA4F15C
:100318000104E9D191F0000F04BF01460020B1FAB1
:1003280081F308BF2033A3F10B03B3F120020CDAE9
:100338000C3208DD02F1140CC2F10C0201FA0CF0C7
:1003480021FA02F10CE002F11402D8BFC2F1200C2C
:1003580001FA02F120FA0CFCDCBF41EA0C019040E2
:10036800E41AA2BF01EB0451294330BD6FEA04042B
:100378001F3C1CDA0C340EDC04F11404C4F1200216
:1003880020FA04F001FA02F340EA030021FA04F328
:1003980045EA030130BDC4F10C04C4F1200220FA7F
:1003A80002F001FA04F340EA0300294630BD21FABD
:1003B80004F0294630BD94F0000F83F4801306BF83
:1003C80081F480110134013D4EE77FEA645C18BF77
:1003D8007FEA655C29D094EA050F08BF90EA020F0E
:1003E80005D054EA000C04BF1946104630BD91EA06
:1003F800030F1EBF0021002030BD5FEA545C05D109
:100408004000494128BF41F0004130BD14F5800447
:100418003CBF01F5801130BD01F0004545F0FE41BB
:1004280041F470014FF0000030BD7FEA645C1ABFF0
:10043800194610467FEA655C1CBF0B46024650EA27
:10044800013406BF52EA033591EA030F41F4002153
:1004580030BD00BF90F0000F04BF0021704730B5D9
:100468004FF4806404F132044FF000054FF00001AE
:1004780050E700BF90F0000F04BF0021704730B56F
:100488004FF4806404F1320410F0004548BF404244
:100498004FF000013EE700BF42004FEAE2014FEA99
:1004A80031014FEA02701FBF12F07F4393F07F4F74
:1004B80081F06051704732F07F4208BF704793F077
:1004C8007F4F04BF41F40021704730B54FF460748A
:1004D80001F0004521F000411CE700BF50EA01028D
:1004E80008BF704730B54FF000050AE050EA010236
:1004F80008BF704730B511F0004502D5404261EBA6
:1005080041014FF4806404F132045FEA915C3FF4E6
:10051800D8AE4FF003025FEADC0C18BF03325FEA83
:10052800DC0C18BF033202EBDC02C2F1200300FA34
:1005380003FC20FA02F001FA03FE40EA0E0021FA59
:1005480002F11444BDE600BF70B54FF0FF0C4CF447
:10055800E06C1CEA11541DBF1CEA135594EA0C0FF9
:1005680095EA0C0F00F0DEF82C4481EA030621EA34
:100578004C5123EA4C5350EA013518BF52EA03356F
:1005880041F4801143F4801338D0A0FB02CE4FF021
:100598000005E1FB02E506F00042E0FB03E54FF051
:1005A8000006E1FB03569CF0000F18BF4EF0010E49
:1005B800A4F1FF04B6F5007F64F5407404D25FEA45
:1005C8004E0E6D4146EB060642EAC62141EA5551F8
:1005D8004FEAC52040EA5E504FEACE2EB4F1FD0C3A
:1005E80088BFBCF5E06F1ED8BEF1004F08BF5FEAB8
:1005F800500E50F1000041EB045170BD06F000466A
:1006080046EA010140EA020081EA0301B4EB5C0416
:10061800C2BFD4EB0C0541EA045170BD41F480110E
:100628004FF0000E013C00F3AB8014F1360FDEBF33
:10063800002001F0004170BDC4F10004203C35DA0F
:100648000C341BDC04F11404C4F1200500FA05F392
:1006580020FA04F001FA05F240EA020001F0004233
:1006680021F0004110EBD37021FA04F642EB0601A9
:100678005EEA430E08BF20EAD37070BDC4F10C04D3
:10068800C4F1200500FA04F320FA05F001FA04F297
:1006980040EA020001F0004110EBD37041F1000183
:1006A8005EEA430E08BF20EAD37070BDC4F120058E
:1006B80000FA05F24EEA020E20FA04F301FA05F2F6
:1006C80043EA020321FA04F001F0004121FA04F29E
:1006D80020EA020000EBD3705EEA430E08BF20EA6E
:1006E800D37070BD94F0000F0FD101F000464000A8
:1006F80041EB010111F4801F08BF013CF7D041EA2A
:10070800060195F0000F18BF704703F0004652002D
:1007180043EB030313F4801F08BF013DF7D043EAFE
:100728000603704794EA0C0F0CEA135518BF95EAB4
:100738000C0F0CD050EA410618BF52EA4306D1D13B
:1007480081EA030101F000414FF0000070BD50EA5A
:10075800410606BF1046194652EA430619D094EAE4
:100768000C0F02D150EA013613D195EA0C0F05D1CE
:1007780052EA03361CBF104619460AD181EA030122
:1007880001F0004141F0FE4141F470014FF00000DA
:1007980070BD41F0FE4141F4780170BD70B54FF075
:1007A800FF0C4CF4E06C1CEA11541DBF1CEA1355F5
:1007B80094EA0C0F95EA0C0F00F0A7F8A4EB0504D7
:1007C80081EA030E52EA03354FEA013100F08880CE
:1007D8004FEA03334FF0805545EA131343EA126397
:1007E8004FEA022245EA111545EA10654FEA00264C
:1007F8000EF000419D4208BF964244F1FD0404F505
:10080800407402D25B084FEA3202B61A65EB030560
:100818005B084FEA32024FF480104FF4002CB6EB1D
:10082800020E75EB030E22BFB61A754640EA0C009D
:100838005B084FEA3202B6EB020E75EB030E22BFDD
:10084800B61A754640EA5C005B084FEA3202B6EB1E
:10085800020E75EB030E22BFB61A754640EA9C00DD
:100868005B084FEA3202B6EB020E75EB030E22BFAD
:10087800B61A754640EADC0055EA060E18D04FEA6B
:10088800051545EA16754FEA06164FEAC30343EA0B
:1008980052734FEAC2025FEA1C1CC0D111F4801FD8
:1008A8000BD141EA00014FF000004FF0004CB6E7D1
:1008B80011F4801F04BF01430020B4F1FD0C88BF70
:1008C800BCF5E06F3FF6AFAEB5EB030C04BFB6EB7B
:1008D800020C5FEA500C50F1000041EB045170BD6E
:1008E8000EF0004E4EEA113114EB5C04C2BFD4EB9B
:1008F8000C0541EA045170BD41F480114FF0000E1F
:10090800013C90E645EA060E8DE60CEA135594EA9A
:100918000C0F08BF95EA0C0F3FF43BAF94EA0C0F9D
:100928000AD150EA01347FF434AF95EA0C0F7FF412
:1009380025AF104619462CE795EA0C0F06D152EA66
:1009480003353FF4FDAE1046194622E750EA41064A
:1009580018BF52EA43067FF4C5AE50EA41047FF45B
:100968000DAF52EA43057FF4EBAE12E74A0011D20D
:1009780012F5001211D20DD56FF47873B3EB6252F1
:100988000ED44FEAC12343F0004343EA505323FAFD
:1009980002F070474FF00000704750EA013002D172
:1009A8004FF0FF3070474FF00000704753B94AB915
:1009B800002908BF00281CBF4FF0FF314FF0FF305F
:1009C80000F072B9ADF1080C6DE904CE00F006F83C
:1009D800DDF804E0DDE9022304B070472DE9F047B3
:1009E800089E04468846002B4BD18A42154667D993
:1009F800B2FA82F24AB1C2F1200701FA02F320FAF0
:100A080007F7954047EA030894404FEA154E230C30
:100A1800B8FBFEF71FFA85FC0EFB178843EA08436C
:100A280007FB0CF1994209D9EB1807F1FF3080F068
:100A38001B81994240F21881023F2B445B1AA4B2F1
:100A4800B3FBFEF00EFB103344EA034400FB0CFC3E
:100A5800A44509D92C1900F1FF3380F00781A4457A
:100A680040F2048102382C4440EA0740A4EB0C040D
:100A780000271EB1D4400023C6E900433946BDE82B
:100A8800F0878B4209D9002E00F0EB800027C6E9D9
:100A9800000138463946BDE8F087B3FA83F7002FDE
:100AA80047D18B4202D3824200F2FA80841A61EB6A
:100AB800030301209846002EE0D0C6E90048DDE790
:100AC80002B9FFDEB2FA82F2002A40F08F80491B99
:100AD8004FEA154E1FFA85F80127B1FBFEFC230CDF
:100AE8000EFB1C1143EA014308FB0CF1994207D99C
:100AF800EB180CF1FF3002D2994200F2CD80844607
:100B0800591AA3B2B1FBFEF00EFB101443EA0444D9
:100B180008FB00F8A04507D92C1900F1FF3302D2D1
:100B2800A04500F2B6801846A4EB080440EA0C4041
:100B38009FE7C7F1200CBB4022FA0CFE4EEA030ED9
:100B480001FA07F420FA0CF521FA0CF34FEA1E48D3
:100B58002543B3FBF8F92C0C08FB19331FFA8EFA5E
:100B680044EA034309FB0AF49C4202FA07F200FA3A
:100B780007F10BD91EEB030309F1FF3080F08780E2
:100B88009C4240F28480A9F1020973441B1BADB258
:100B9800B3FBF8F008FB103345EA034400FB0AFAFC
:100BA800A24508D91EEB040400F1FF336BD2A2451D
:100BB80069D90238744440EA0940A0FB0289A4EBD1
:100BC8000A044C45C2464B4654D351D0002E69D036
:100BD800B1EB0A0564EB030404FA0CFCFD40FC408D
:100BE8004CEA0505C6E90054002747E7C2F120038F
:100BF80020FA03F7954001FA02F021FA03F34FEACD
:100C0800154E3843010CB3FBFEF71FFA85F80EFBAF
:100C1800173341EA034107FB08F38B4204FA02F455
:100C280007D9691807F1FF3C2FD28B422DD9023F13
:100C38002944CB1A81B2B3FBFEF00EFB103341EA14
:100C4800034100FB08F38B4207D9691800F1FF3C08
:100C580017D28B4215D902382944C91A40EA0747E6
:100C68003BE73746304609E70746E7E61846FBE61E
:100C78004145ABD2B8EB020A69EB0E0201381346C4
:100C8800A4E76046E9E7184695E76746D1E7814655
:100C98007CE702382C4447E7ACF1020C2B442FE7E1
:100CA800384608E73746E9E6704700BF10B50446FE
:100CB8000E4B18784FF47A73B3FBF0F30C4A1068B4
:100CC800B0FBF3F000F09CF868B90F2C01D90120B3
:100CD8000AE0002221464FF0FF3000F05DF8034B98
:100CE8005C60002000E0012010BD00BF0000002073
:100CF8000800002008B50B4B1A6842F400721A600D
:100D08001A6842F480621A601A6842F480721A60A3
:100D1800032000F02FF80020FFF7C8FF01F010FAB9
:100D2800002008BD003C0240034A1168034B1B78B1
:100D38000B441360704700BF28000020000000200B
:100D4800014B1868704700BF2800002038B50446DA
:100D5800FFF7F6FF0546B4F1FF3F02D0044B1B78BE
:100D68001C44FFF7EDFF401BA042FAD338BD00BF7B
:100D780000000020074AD36823F4E0631B041B0C1F
:100D8800000200F4E060184340F0BF6040F4003017
:100D9800D060704700ED00E030B4174BDB68C3F358
:100DA8000223C3F10704042C28BF04241D1D062DAB
:100DB80018D9033B4FF0FF3505FA04F421EA040182
:100DC800994005FA03F322EA0303194300280BDBD1
:100DD8000901C9B200F1604000F5614080F80013D4
:100DE80030BC70470023E5E700F00F000901C9B2E5
:100DF800024B1954F4E700BF00ED00E014ED00E0E9
:100E08000138B0F1807F0AD2064B5860064AF021BB
:100E180082F823100020986007221A60704701208A
:100E2800704700BF10E000E000ED00E000230F2B4A
:100E380000F2C580F0B482B039E0042200E000225C
:100E4800B2403A4302345E4E46F824205D4A1468A4
:100E5800EA4302EA04064F6817F4803F01D045EAE6
:100E68000406584C2660646802EA04064F6817F4C2
:100E7800003F01D045EA0406524C6660A46802EAC5
:100E880004064F6817F4801F01D045EA04064D4C4C
:100E9800A660E46822404E6816F4001F01D045EAB7
:100EA8000402484CE26001330F2B00F285800122D6
:100EB8009A400C6804EA0205AA42F4D14C68022C54
:100EC80001D0122C10D1DE08083650F826C003F0E5
:100ED8000704A7000F24BC402CEA040C0C69BC4092
:100EE80044EA0C0440F8264004685F000326BE402C
:100EF800F64306EA040C4C6804F00304BC4044EAD8
:100F08000C0404604C6804F1FF3CBCF1010F03D9E8
:100F1800112C01D0122C10D1846806EA040CCC687C
:100F2800BC4044EA0C048460446824EA02024C6829
:100F3800C4F300149C4014434460C26816408A6895
:100F4800BA403243C2604A6812F0805FABD00022D8
:100F580001921D4A546C44F480445464526C02F467
:100F680080420192019A9C08A61C154A52F82670E4
:100F780003F0030296000F22B24027EA0207134A41
:100F880090423FF45CAF02F5806290420ED002F5C9
:100F9800806290420CD002F5806290420AD002F53D
:100FA800806290423FF449AF072249E7012247E7B0
:100FB800022245E7032243E702B0F0BC70477047BE
:100FC80000380140003C0140003802400000024067
:100FD80012B909048161704781617047002800F0E7
:100FE800BB8170B582B00446036813F0010F3BD093
:100FF800A74B9B6803F00C03042B2CD0A44B9B68D5
:1010080003F00C03082B21D06368B3F5803F4FD061
:10101800B3F5A02F52D09E4B1A6822F480321A6082
:101028001A6822F480221A606368002B50D0FFF7F8
:1010380087FE0546964B1B6813F4003F14D1FFF753
:101048007FFE401B6428F5D903208AE1904B5B683A
:1010580013F4800FD8D08E4B1B6813F4003F03D0D5
:101068006368002B00F07A81236813F0020F55D0D3
:10107800874B9B6813F00C0F3ED0854B9B6803F0A1
:101088000C03082B33D0E368002B68D0814B012276
:101098001A60FFF755FE05467D4B1B6813F0020FDB
:1010A80054D1FFF74DFE401B0228F5D9032058E123
:1010B800774A136843F480331360B5E7744B1A68B2
:1010C80042F480221A601A6842F480321A60ABE750
:1010D800FFF736FE05466E4B1B6813F4003FC3D07E
:1010E800FFF72EFE401B6428F5D9032039E1684B31
:1010F8005B6813F4800FC6D1654B1B6813F0020FB1
:1011080004D0E368012B01D001202AE1604A13686A
:1011180023F0F803216943EAC1031360236813F03D
:10112800080F40D0636963B35B4B01221A60FFF775
:1011380007FE0546564B5B6F13F0020F33D1FFF7DE
:10114800FFFD401B0228F5D903200AE1504A136825
:1011580023F0F803216943EAC1031360DEE74D4B2E
:1011680000221A60FFF7ECFD0546494B1B6813F097
:10117800020FD3D0FFF7E4FD401B0228F5D9032066
:10118800EFE0454B00221A60FFF7DAFD0546404BB9
:101198005B6F13F0020F06D0FFF7D2FD401B022849
:1011A800F5D90320DDE0236813F0040F79D0384B1C
:1011B8001B6C13F0805F33D100230193344B1A6CFE
:1011C80042F080521A641B6C03F080530193019B18
:1011D8000125324B1B6813F4807F23D0A368012BB1
:1011E80034D0052B38D02A4B1A6F22F001021A6727
:1011F8001A6F22F004021A67A368002B36D0FFF793
:101208009FFD0646224B1B6F13F0020F48D1FFF7D4
:1012180097FD801B41F288339842F3D90320A0E060
:101228000025D6E71D4A136843F480731360FFF75F
:1012380087FD0646194B1B6813F4807FCED1FFF754
:101248007FFD801B0228F5D903208AE0104A136F1E
:1012580043F001031367CFE70D4B1A6F42F0040206
:101268001A671A6F42F001021A67C5E7FFF768FDAF
:101278000646074B1B6F13F0020F11D0FFF760FDF6
:10128800801B41F288339842F3D9032069E000BFFC
:101298000038024000004742800E4742007000407C
:1012A800E5B9A369002B5BD0304A926802F00C02C2
:1012B800082A58D0022B17D02D4B00221A60FFF7AE
:1012C8003FFD0446294B1B6813F0007F42D0FFF70F
:1012D80037FD001B0228F5D9032042E0234A136C8E
:1012E80023F080531364DCE7214B00221A60FFF7D8
:1012F80027FD05461D4B1B6813F0007F06D0FFF73E
:101308001FFD401B0228F5D903202AE0E369226A61
:101318001343626A43EA8213A26A5208013A43EA13
:101328000243E26A43EA0263104A5360104B012207
:101338001A60FFF705FD04460C4B1B6813F0007F8D
:1013480006D1FFF7FDFC001B0228F5D9032008E0B1
:10135800002006E0002004E001207047012000E0A2
:10136800002002B070BD0120FBE700BF003802403A
:1013780060004742324B9B6803F00C03042B5CD09F
:10138800082B01D02F4870472DE9F04B2C4B5A6899
:1013980002F03F025B6813F4800F2BD0284B5B6888
:1013A800C3F388131E4600275C010025E41A65EB89
:1013B8000705A90141EA9461A001001B61EB050141
:1013C800CB0043EA5073C400A01943EB07014B025A
:1013D80043EAD0534402204619460023FFF7E6FAB1
:1013E800174B5B68C3F3014301335B00B0FBF3F0B9
:1013F800BDE8F08B124B5B68C3F388131E460027C9
:101408005C010025E41A65EB0705A90141EA94612E
:10141800A001001B61EB0501CB0043EA5073C40037
:10142800A01943EB07018B0243EA9053840220463C
:1014380019460023FFF7BAFAD2E70348704700BFFE
:10144800003802400024F40000127A00002800F05E
:101458009D8070B504464F4B1B6803F00F038B4209
:1014680009D2CBB24B4A1370136803F00F038B42B7
:1014780001D0012070BD236813F0020F17D013F0BC
:10148800040F04D0444A936843F4E05393602368FC
:1014980013F0080F04D0404A936843F46043936004
:1014A8003D4A936823F0F003A068034393600D4618
:1014B800236813F0010F32D06368012B21D09A1EE4
:1014C800012A25D9344A126812F0020F60D0324935
:1014D8008A6822F0030213438B60FFF731FC06464B
:1014E8002D4B9B6803F00C036268B3EB820F16D098
:1014F800FFF726FC801B41F288339842F0D903207D
:10150800B8E7254A126812F4003FE0D10120B1E79C
:10151800214A126812F0007FD9D10120AAE71D4B99
:101528001B6803F00F03AB4209D9EAB2194B1A70D2
:101538001B6803F00F03AB4201D001209AE7236830
:1015480013F0040F06D0144A936823F4E053E168BB
:101558000B439360236813F0080F07D00E4A936873
:1015680023F46043216943EAC1039360FFF702FF54
:10157800094B9B68C3F30313084AD35CD840084B54
:1015880018600020FFF792FB002073E701207047E6
:1015980001206FE7003C0240003802409C2300080D
:1015A80008000020014B1868704700BF08000020A1
:1015B80008B5FFF7F7FF044B9B68C3F38223034A80
:1015C800D35CD84008BD00BF00380240AC230008F7
:1015D80008B5FFF7E7FF044B9B68C3F34233034AA0
:1015E800D35CD84008BD00BF00380240AC230008D7
:1015F80070B4036A23F001030362036A42688469D2
:1016080024F073040D6845EA040623F002048B688D
:1016180023430D4DA84209D00B4DA8420DD042607E
:1016280086614A684263036270BC704723F008030E
:10163800CC68234323F00403EEE722F440724C699C
:1016480014438A692243EAE70000014030B4036A80
:1016580023F480730362036A4268C46924F0730444
:101668000D682C4323F400738D6843EA05230F4D5E
:10167800A84209D00D4DA8420ED04260C4614A6804
:10168800C263036230BC704723F40063CD6843EA49
:10169800052323F48063EDE722F440524D6942EAC2
:1016A80005128D6942EA0512E7E700BF0000014014
:1016B80030B4036A23F480530362036A4468C2693E
:1016C80022F4E6420D6842EA052223F400538D68AD
:1016D80043EA0533074DA84206D04460C2614A6810
:1016E8000264036230BC704724F480444D6944EAC4
:1016F8008514F2E70000014010B4036A046A24F07C
:1017080001040462846924F0F00444EA021223F01C
:101718000A030B43826103625DF8044B704710B4FF
:10172800036A23F0100303628469036A24F4704493
:1017380044EA023223F0A00343EA01138261036200
:101748005DF8044B7047836823F07003194341F038
:1017580007018160704770470368254A90420ED0A0
:10176800B0F1804F0BD0A2F57C42904207D002F531
:101778008062904203D002F58062904203D123F048
:1017880070034A6813431A4A90421AD0B0F1804F46
:1017980017D0A2F57C42904213D002F580629042A5
:1017A8000FD002F5806290420BD002F59A32904237
:1017B80007D002F58062904203D002F58062904221
:1017C80003D123F44073CA68134323F080034A69A2
:1017D800134303608B68C3620B688362044B9842AF
:1017E80002D00123436170470B690363F9E700BF27
:1017F80000000140A8B110B5044690F83D305BB137
:10180800022384F83D30211D2068FFF7A5FF01233E
:1018180084F83D30002010BD80F83C3000F0B0FC6A
:10182800EEE701207047A8B110B5044690F83D30A6
:101838005BB1022384F83D30211D2068FFF78CFF3F
:10184800012384F83D30002010BD80F83C30FFF7BC
:1018580082FFEEE70120704730B4036A23F01003DB
:101868000362036A4468826922F4E6420D6842EA28
:10187800052223F020038D6843EA05130E4DA84284
:1018880009D00D4DA8420ED0446082614A68826337
:10189800036230BC704723F08003CD6843EA051328
:1018A80023F04003EDE724F440644D6944EA8504DD
:1018B8008D6944EA8504E7E70000014038B590F8EF
:1018C8003C30012B66D00D460446012380F83C309D
:1018D800022380F83D300C2A1AD8DFE802F00719F5
:1018E8001919201919193419191947000068FFF72F
:1018F8007FFE2268936943F0080393612268936925
:1019080023F0040393612268936929690B43936167
:10191800012384F83D30002084F83C0038BD00687D
:10192800FFF79AFF2268936943F400639361226882
:10193800936923F48063936122689369296943EA70
:1019480001239361E4E70068FFF780FE2268D3690A
:1019580043F00803D3612268D36923F00403D361F9
:101968002268D36929690B43D361D1E70068FFF77F
:101978009FFE2268D36943F40063D3612268D36968
:1019880023F48063D3612268D369296943EA012378
:10199800D361BDE70220C1E710B4846824F47F4412
:1019A80042EA03230B43234383605DF8044B7047EB
:1019B80090F83C30012B66D010B50446012380F81E
:1019C8003C30022380F83D300268936823F47F435B
:1019D80023F0770393600B68402B4AD013D9602B10
:1019E8003DD01ED9702B28D0B3F5005F30D1CB681D
:1019F8004A6889680068FFF7CFFF2268936843F454
:101A08008043936024E0102B06D004D9202B03D008
:101A1800302B01D01CE0DBB919462068FFF793FE94
:101A280016E0502B14D1CA6849680068FFF764FEB5
:101A380050212068FFF787FE0AE0CB684A6889686A
:101A48000068FFF7A9FF2268936843F07703936063
:101A5800012384F83D30002084F83C0010BDCA689A
:101A680049680068FFF75BFE60212068FFF76BFE9E
:101A7800EEE7CA6849680068FFF73EFE4021206823
:101A8800FFF761FEE4E70220704710B401F01F0180
:101A9800012303FA01F4036A23EA04030362036AD5
:101AA8008A40134303625DF8044B704710B504463F
:101AB80001220068FFF7E9FF23680A4A93420BD026
:101AC8002268936803F00703062B03D0136843F0DA
:101AD80001031360002010BD5A6C42F400425A649E
:101AE800EEE700BF0000014090F83C30012B1CD00D
:101AF80070B4012680F83C60022380F83D3002680B
:101B08005568936825F070050C682C4323F0800510
:101B18004B682B4354600268936080F83D60002353
:101B280080F83C30184670BC7047022070470000AF
:101B38002DE9F84304460268136923F44053C16849
:101B48000B43136183680269134342691343C269F3
:101B58001A430168CB6823F4164323F00C0313439C
:101B6800CB600268536923F4407381690B43536166
:101B7800C369B3F5004F60D00368B84A934200F0D8
:101B8800148102F58062934200F00F81FFF710FD87
:101B980000EB800000EB80006568AD00B0FBF5F558
:101BA800AF4FA7FB05356D092E01FFF701FD00EBCF
:101BB800800000EB80006568AD00B0FBF5F9FFF729
:101BC800F7FC00EB800000EB80006568AD00B0FB1F
:101BD800F5F5A7FB05356D094FF0640808FB159569
:101BE8002D013235A7FB05356D0905F0F0053544A3
:101BF800FFF7DEFC00EB800000EB80006668B600B3
:101C0800B0FBF6F6FFF7D4FC00EB800000EB800099
:101C180063689B00B0FBF3F0A7FB0030400908FBAA
:101C280010684FEA081808F13208A7FB0837C7F30D
:101C3800431723682F449F600DE10368874A934246
:101C48005BD002F58062934257D0FFF7B1FC00EBFE
:101C5800800000EB800065686D00B0FBF5F5804FF3
:101C6800A7FB05356D092E01FFF7A2FC00EB8000EC
:101C780000EB800065686D00B0FBF5F9FFF798FC94
:101C880000EB800000EB800065686D00B0FBF5F5A7
:101C9800A7FB05356D094FF0640808FB1595ED00A5
:101CA8003235A7FB05356D096D0005F4F875354427
:101CB800FFF77EFC00EB800000EB80006668760092
:101CC800B0FBF6F6FFF774FC00EB800000EB800039
:101CD80063685B00B0FBF3F3A7FB03235B0908FB16
:101CE80013684FEAC80808F13208A7FB0837C7F39A
:101CF800421723682F449F60ADE0FFF769FC00EBB3
:101D0800800000EB800065686D00B0FBF5F5544F6E
:101D1800A7FB05356D092E01FFF75AFC00EB800083
:101D280000EB800065686D00B0FBF5F9FFF750FC2B
:101D380000EB800000EB800065686D00B0FBF5F5F6
:101D4800A7FB05356D094FF0640808FB1595ED00F4
:101D58003235A7FB05356D096D0005F4F875354476
:101D6800FFF736FC00EB800000EB80006668760029
:101D7800B0FBF6F6FFF72CFC00EB800000EB8000D0
:101D880063685B00B0FBF3F3A7FB03235B0908FB65
:101D980013684FEAC80808F13208A7FB0837C7F3E9
:101DA800421723682F449F6055E0FFF711FC00EBB2
:101DB800800000EB80006568AD00B0FBF5F5284FAA
:101DC800A7FB05356D092E01FFF702FC00EB80002B
:101DD80000EB80006568AD00B0FBF5F9FFF7F8FB94
:101DE80000EB800000EB80006568AD00B0FBF5F506
:101DF800A7FB05356D094FF0640808FB15952D0103
:101E08003235A7FB05356D0905F0F0053544FFF7B8
:101E1800DFFB00EB800000EB80006668B600B0FBDB
:101E2800F6F6FFF7D5FB00EB800000EB8000636857
:101E38009B00B0FBF3F0A7FB0030400908FB1068DB
:101E48004FEA081808F13208A7FB0837C7F3431709
:101E580023682F449F60BDE8F88300BF001001404D
:101E68001F85EB5158B310B5044690F839300BB3C1
:101E7800242384F839302268D36823F40053D360CC
:101E88002046FFF755FE2268136923F49043136137
:101E98002268536923F02A0353612268D36843F404
:101EA8000053D3600020E063202384F8393084F89D
:101EB8003A3010BD80F8383000F0A2F9D8E7012098
:101EC8007047000030B58BB0002405940694079441
:101ED800089409940194224B1A6B42F004021A6385
:101EE8001A6B02F004020192019A02941A6B42F0F2
:101EF80080021A631A6B02F080020292029A03941B
:101F08001A6B42F001021A631A6B02F00102039283
:101F1800039A04941A6B42F002021A631B6B03F0D3
:101F280002030493049B0F4D224620212846FFF705
:101F38004FF84FF4005305930B4B0693079405A9EC
:101F48000A48FEF773FF202305930123069307949D
:101F5800089405A92846FEF769FF0BB030BD00BFFD
:101F68000038024000000240000021100008024032
:101F780030B58FB000240A940B940C940D940894F7
:101F88000994019402940394049405940694079484
:101F9800164D4FF080432B6009236B60AC605323D0
:101FA800EB602C61AC612846FFF724FC4FF48053AA
:101FB8000A930AA92846FFF7FBFC2846FFF733FCDB
:101FC8000894099408A92846FFF78EFD6023019319
:101FD8002A23029303940594224601A92846FFF771
:101FE8006DFC284600F0E2F80FB030BD2C00002050
:101FF80008B50848084B03604FF4E13343600023F9
:102008008360C36003610C2242618361C361FFF78F
:1020180029FF08BD6C0000200044004030B595B091
:102028003022002108A800F0A1F9002403940494A8
:1020380005940694079401941B4B1A6C42F0805245
:102048001A641B6C03F080530193019B0294174A96
:10205800136823F4404343F400431360136803F404
:1020680040430293029B0225089501230B931023FA
:102078000C930E950F9410934FF4A87311930423A7
:1020880012930723139308A8FEF7A8FF0F230393BF
:10209800049505944FF4805306930794294603A8A2
:1020A800FFF7D4F915B030BD003802400070004089
:1020B80038B5FEF71FFEFFF7B1FFFFF703FFFFF785
:1020C80057FFFFF795FF00211B48FFF7EFFC2DE0B6
:1020D8002046FEF7CFF916A3D3E90023FEF734FA1A
:1020E800154B1D68FEF742FC68630A20FEF72EFEBA
:1020F8000134642CECDD012416E02046FEF7BAF921
:102108000BA3D3E90023FEF71FFA02460B46002073
:102118000A49FEF761F8084B1D68FEF727FC68635B
:102128000A20FEF713FE0134642CE6DD0124E0E703
:10213800E17A14AE47E1EA3F2C0000200000554048
:1021480000B583B0002100910C4B5A6C42F48042D8
:102158005A645A6C02F480420092009A01911A6CF7
:1021680042F080521A641B6C03F080530193019B68
:102178000720FEF7FFFD03B05DF804FB00380240BE
:102188000368B3F1804F00D0704782B000230193F9
:10219800054B1A6C42F001021A641B6C03F0010330
:1021A8000193019B02B070470038024000B587B028
:1021B8000023019302930393049305930368B3F1F7
:1021C800804F02D007B05DF804FB002300930A4B50
:1021D8001A6B42F001021A631B6B03F001030093B0
:1021E800009B0123019302220292059301A903484F
:1021F800FEF71CFEE6E700BF003802400000024080
:1022080000B589B0002303930493059306930793BD
:102218000268144B9A4202D009B05DF804FB002111
:10222800019103F5FA331A6C42F400321A641A6CFD
:1022380002F400320192019A02911A6B42F00102F3
:102248001A631B6B03F001030293029B0C23039395
:10225800022304930723079303A90348FEF7E6FD27
:10226800DAE700BF00440040000002407047FEE784
:10227800FEE7FEE7FEE770477047704708B5FEF7D0
:1022880053FD08BD0F49D1F8883043F47003C1F8F5
:1022980088300D4B1A6842F001021A6000209860DD
:1022A8001A6822F0847222F480321A60074A5A604F
:1022B8001A6822F480221A60D8604FF000638B609D
:1022C800704700BF00ED00E00038024010300024E5
:1022D800DFF834D0002103E00C4B5B584350043145
:1022E8000B480C4B42189A42F6D30B4A02E00023E3
:1022F80042F8043B094B9A42F9D3FFF7C3FF00F0B9
:1023080011F8FFF7D5FE704700800120C4230008AC
:10231800000000200C0000200C000020AC00002071
:10232800FEE7000070B50D4E0D4CA41BA41000254F
:10233800A54209D10B4E0C4C00F020F8A41BA410A8
:102348000025A54205D170BD56F8253098470135BE
:10235800EEE756F8253098470135F2E7BC23000828
:10236800BC230008BC230008C0230008024403461D
:10237800934200D1704703F8011BF9E7F8B500BF95
:10238800F8BC08BC9E467047F8B500BFF8BC08BC4E
:042398009E467047A6
:10239C000000000000000000010203040607080909
:0823AC0000000000010203041F
:0823B40030E6FF7F010000008C
:0423BC00BD01000857
:0423C0009901000877
:0C23C40001000000100000000024F400E4
:04000005080022D9F4
:00000001FF
