:020000040800F2
:10000000008001209D0E0008550D0008570D0008C6
:10001000590D00085B0D00085D0D00080000000090
:100020000000000000000000000000005F0D00085C
:10003000610D000800000000630D0008650D000858
:10004000ED0E0008ED0E0008ED0E0008ED0E0008A4
:10005000ED0E0008ED0E0008ED0E0008ED0E000894
:10006000ED0E0008ED0E0008ED0E0008ED0E000884
:10007000ED0E0008ED0E0008ED0E0008ED0E000874
:10008000ED0E0008ED0E0008ED0E00080000000067
:10009000000000000000000000000000ED0E00085D
:1000A000ED0E0008ED0E0008ED0E0008ED0E000844
:1000B000690D0008ED0E0008ED0E0008ED0E0008B9
:1000C000ED0E0008ED0E0008ED0E0008ED0E000824
:1000D000ED0E0008ED0E0008ED0E00080000000017
:1000E000ED0E0008ED0E0008ED0E00080000000007
:1000F000000000000000000000000000ED0E0008FD
:1001000000000000ED0E0008ED0E0008ED0E0008E6
:1001100000000000000000000000000000000000DF
:10012000ED0E0008ED0E0008ED0E0008ED0E0008C3
:10013000ED0E0008000000000000000000000000BC
:10014000000000000000000000000000ED0E0008AC
:10015000ED0E0008ED0E0008ED0E0008ED0E000893
:10016000ED0E0008ED0E0008000000000000000089
:10017000000000000000000000000000000000007F
:1001800000000000ED0E000800000000000000006C
:04019000ED0E000868
:1001940010B5054C237833B9044B13B10448AFF3BD
:1001A40000800123237010BD240000200000000003
:1001B400480F000808B5034B1BB103490348AFF3CC
:1001C400008008BD0000000028000020480F00083F
:1001D40003460279002A57D00268002A61D0417987
:1001E40001291CD019B1022924D0012009E02E498B
:1001F400486820EA02024A601A68086802430A60F2
:1002040000209A79002A4ED010B4022A27D0032A5B
:1002140030D0012A18D001205DF8044B70472249E0
:10022400086820EA02020A601A68486802434A60C1
:100234000020E6E71C49086802430A601A68486817
:1002440002434A600020DCE71C68174AD16821EAAF
:100254000401D1601B6891680B439360DCE71C6860
:10026400114A916821EA040191601B68D1680B432B
:10027400D360D1E719680C4A9468214391601B68E4
:10028400D1680B43D360C7E70068074A116821EAC5
:10029400000111601968536823EA010353600020C8
:1002A4007047002070477047003C0140F0B40A6872
:1002B40092FAA2F2B2FA82F218E00E69C46893FAD2
:1002C400A3F5B5FA85F56D00032707FA05F524EAC9
:1002D400050493FAA3F5B5FA85F56D0006FA05F55C
:1002E4002C43C4604C68022C36D001320B6833FABC
:1002F40002F464D0012494402340F6D04E6804688C
:1003040093FAA3F5B5FA85F56D00032707FA05F509
:1003140024EA050493FAA3F5B5FA85F56D0006FA07
:1003240005F52C4304604C68013C012CC5D88E684B
:10033400846893FAA3F5B5FA85F56D0007FA05F517
:1003440024EA050493FAA3F5B5FA85F56D0006FAD7
:1003540005F52C438460B0E793FAA3F4B4FA84F46B
:10036400072C15D84D69046A93FAA3F6B6FA86F6F3
:10037400B6000F2707FA06F624EA060493FAA3F355
:10038400B3FA83F39B0005FA03F323430362ACE758
:100394004C69456A1B0A93FAA3F6B6FA86F6B600C8
:1003A4000F2707FA06F625EA060593FAA3F3B3FA2C
:1003B40083F39B0004FA03F32B43436295E74A68F3
:1003C400013A012A02D90020F0BC7047C96842688A
:1003D40022EA030201FB03F313434360F3E7000043
:1003E400034B9B68C3F30313024AD35CD8407047A2
:1003F40000380240600F0008034B9B68C3F382235C
:10040400024AD35CD840704700380240700F00089D
:10041400034B9B68C3F34233024AD35CD840704712
:1004240000380240700F00080F4B5B6803F4800330
:1004340023B90E4B082803D0002070470C4BF9E772
:10044400094A506800F03F00B3FBF0F35068C0F372
:10045400881000FB03F05368C3F3014301335B00CE
:10046400B0FBF3F0704700BF003802400024F400F2
:1004740000127A0008B5084B9B6803F00C03042BA8
:1004840007D0082B01D0054808BD0820FFF7CCFF92
:10049400FAE70348F8E700BF003802400024F400FC
:1004A40000127A0010B50446FFF7E4FF2060FFF75E
:1004B40097FF6060FFF7A0FFA0606068FFF7A8FFE8
:1004C400E06010BD30B4036A23F001030362036AE1
:1004D4004468826922F073020D682A4323F0020300
:1004E4000D692B4323F001034D682B430F4DA842A4
:1004F40007D044608261CA6842630362002030BC52
:10050400704723F008034D6943EA850323F004038D
:100514008D6843EA850324F480748D692C4324F4A4
:100524000074CD6944EA4504E3E700BF00000140DC
:1005340030B4036A23F010030362036A44688269D7
:1005440022F4E6420D6842EA052223F020030D69F5
:1005540043EA051323F010034D6843EA0513104DD5
:10056400A84207D044608261CA68826303620020A3
:1005740030BC704723F080034D6943EA851323F0B0
:1005840040038D6843EA851324F480648D6944EA4A
:10059400850424F40064CD6944EAC504E2E700BF9D
:1005A4000000014030B4036A23F480730362036AD9
:1005B4004468C26922F073020D682A4323F400736D
:1005C4000D6943EA052323F480734D6843EA052348
:1005D4000F4DA84207D04460C261CA68C263036277
:1005E400002030BC704723F400634D6943EA85233F
:1005F40023F480638D6843EA852324F480548D6951
:1006040044EA051424F40054CD6944EA4514E2E7AD
:100614000000014030B4036A23F480530362036A88
:100624004468C26922F4E6420D6842EA052223F4D2
:1006340000530D6943EA053323F480534D6843EABC
:100644000533084DA84207D04460C261CA680264F9
:100654000362002030BC704724F480448D6944EA6E
:100664008514F1E7000001400368244A90420ED04B
:10067400B0F1804F0BD0A2F57C42904207D002F536
:100684008062904203D002F58062904203D123F04D
:1006940070034A681343194A90421AD0B0F1804F4C
:1006A40017D0A2F57C42904213D002F580629042AA
:1006B4000FD002F5806290420BD002F59A3290423C
:1006C40007D002F58062904203D002F58062904226
:1006D40003D123F44073CA68134303608B68C36275
:1006E4000B888362054B984205D0436943F00103AC
:1006F4004361002070470B7C0363F6E70000014070
:1007040008B5102910D009D9B1F5807F10D0B1F502
:10071400805F11D11146FFF77DFF04E001290BD161
:100724001146FFF7CFFE08BD1146FFF701FFFAE7B8
:100734001146FFF737FFF6E70120F4E7C36813F427
:10074400005F01D00120704730B585B00D460446E6
:10075400C36823F4164323F00C034A68C9680A43A8
:1007640029690A43A9690A431343C360AB68026950
:1007740022F44052134303616B69426922F44072CC
:10078400134343616846FFF78DFE304B9C4208D00B
:100794002F4B9C420CD02F4B9C420BD0012005B018
:1007A40030BD039B002B4ED02A682AB90120F6E7FE
:1007B400029BF7E7039BF5E7A969B1F5004F20D049
:1007C40003EB830303EB83039200B3FBF2F3224DA9
:1007D400A5FB03204009020191B2642202FB1032FE
:1007E40013013233A5FB0323C3F34F1303F0F002C9
:1007F4000A4492B203F00F0313449BB2A360002097
:10080400CDE703EB830303EB83035200B3FBF2F363
:10081400114DA5FB03204009020191B2642202FBA1
:100824001032D3003233A5FB0323C3F34F135A0012
:1008340002F4F8720A4492B203F0070313449BB221
:10084400A3600020ABE70120A9E700BF001001402E
:1008540000440040001401401F85EB51054BA3FBED
:10086400003080090138044B586000229A60052248
:100874001A607047D34D621010E000E0014B18601D
:10088400704700BF20000020F0B58DB000240B9409
:10089400049405940694079408940994344B1A6BB1
:1008A40042F004021A631A6B02F004020392039AE0
:1008B4001A6B42F080021A631A6B02F080020292F1
:1008C400029A1A6B42F001021A631A6B02F00102D7
:1008D4000192019A1A6B42F002021A631B6B03F035
:1008E40002030093009B234D4FF40013AB61224895
:1008F400426922F0F002F02393FAA3F3B3FA83F3EC
:10090400022101FA03F3134343614FF400560A969C
:1009140001278DF82C708DF82E100AA8FFF758FCCB
:10092400164AD06896FAA6F3B3FA83F3BB400321C0
:1009340001FA03F320EA030396FAA6F0D3601068E1
:1009440096FAA6F3B3FA83F3BB4001FA03F320EA61
:10095400030396FAA6F613602023049305970694DE
:100964000794089404A92846FFF7A0FC0DB0F0BD35
:1009740000380240000002400038014000080240F4
:1009840010B58EB0002409940A940B940C940D9421
:100994000594069407942D4B1A6C42F001021A64D4
:1009A4001A6C02F001020292029A1A6B42F00102DE
:1009B4001A631B6B03F001030193019B012303934F
:1009C40002220492089303A92148FFF76FFC214BEC
:1009D400DB68214B83F81C434FF080521A6040F2CD
:1009E400CF73ADF824300A944FF6FF730B930C9435
:1009F40009A94FF08040FFF737FE4FF080431A6893
:100A040022F080021A609A6822F4804222F00702DF
:100A14009A605A6822F070025A609A6822F0800242
:100A24009A609A6922F0030242F001029A619A697B
:100A340022F00C029A619A6922F0F0029A611A6A11
:100A440022F00A021A620EB010BD00BF0038024044
:100A54000000024000ED00E000E100E070B596B057
:100A64000024CDF84640CDF84A40CDF84E40CDF8AC
:100A74005240ADF856402022214609A800F05AFA07
:100A8400039404940594069407940894284E336CB4
:100A940043F002033364336C03F002030293029BBA
:100AA4000923ADF8443053231393224D11A928464A
:100AB400FFF7DAFD2B6823F080032B60AB6823F487
:100AC400804323F00703AB60AB6943F00803AB61D9
:100AD400602309930A940B9414230C930D9409AA8C
:100AE40001212846FFF70CFEAB6923F00403AB6138
:100AF4006B6823F070036B60AB6823F08003AB601A
:100B0400336B43F001033363336B03F0010301934D
:100B1400019B4023039302230493059406940794B2
:100B2400089303A90448FFF7C1FB16B070BD00BFCA
:100B340000380240000400400000024030B591B08B
:100B4400002409940A940B940C940D940E940F941D
:100B54000594069407941D4B1A6C42F400321A64EF
:100B64001A6C02F400320292029A1A6B42F00102E9
:100B74001A631B6B03F001030193019B0C2503957E
:100B840002230493072308930DEB05011048FFF794
:100B94008DFB4FF4E13309930A940B940C940D9557
:100BA4000E940F940B4C09A92046FFF7C7FD236947
:100BB40023F490432361636923F02A036361E368A8
:100BC40043F40053E36011B030BD00BF003802406D
:100BD400000002400044004010B5344A136823F07A
:100BE4000F0343F0020313601368A2F5E63213689F
:100BF40023F4404343F40043136002F5E4321368E2
:100C040023F0F80343F080031360136843F00103F7
:100C14001360274B1B6813F0020FFAD0244A516863
:100C2400244B0B4043F4A84343F010035360536830
:100C340023F4403343F480335360136843F08073E8
:100C440013601B4B1B6813F0007FFAD0184B9A6893
:100C540022F0F0029A609A6822F4E05242F4805240
:100C64009A609A6822F460429A609A6822F00302B9
:100C740042F002029A600E4B9B6803F00C03082BAF
:100C8400F9D10D4C2046FFF7E9FD0C4A136843F0F7
:100C9400040313602046FFF7F1FD054AD2F88C30B7
:100CA40023F08073C2F88C3010BD00BF003C0240BA
:100CB400003802400080BFFF00BD010510E000E0E5
:100CC40000B583B01E4B5A6C42F480425A645A6C8D
:100CD40002F480420192019A1A6C42F080521A6422
:100CE4001B6C03F080530093009B1649CA6822F4DE
:100CF400E0621204120C144B1343CB60FFF76CFF39
:100D0400FFF7C2FDFFF73CFEFFF7A8FEFFF716FF53
:100D14004FF080431A6842F001021A600B4A1168CE
:100D240041F001011160D96841F00201D960196AEA
:100D340041F001011962136A43F001031362FEE7F3
:100D44000038024000ED00E00007FA05000400400E
:100D54007047FEE7FEE7FEE7FEE77047704770471F
:100D6400704700004FF080431B6913F0020F0FD04F
:100D74004FF080436FF002021A61314B1B68012B64
:100D840007D04FF080435A6B2D4B9A6001221A60B2
:100D940070474FF080435B6B294A536092689342DB
:100DA40035DD9B1A27490A6802FB03F307EE903AE4
:100DB400F8EEE77AD1ED016A87EEA67A204B83ED4F
:100DC400037A1F4A002313601E4BD3ED037AD3ED3D
:100DD400045A77EEE55A93ED055A93ED066A35EE1B
:100DE400466A85EE867A92ED036AF7EE005AC5EEFE
:100DF400866A76EEC56A27EE267A77EE877AC3EDA1
:100E0400077AFCEEE77A104BC3ED0D7A70479B1A14
:100E140007EE903AF8EEE77A0A4B93ED027A77EE12
:100E2400877A93ED007AB8EEC77A67EE277AD3ED26
:100E3400016A87EEA67A024B83ED037AC1E700BF0D
:100E44004000002000000020000400400F49D1F8B9
:100E5400883043F47003C1F888300D4B1A6842F0AF
:100E640001021A60002098601A6822F0847222F449
:100E740080321A60074A5A601A6822F480221A6083
:100E8400D8604FF000638B60704700BF00ED00E056
:100E94000038024010300024DFF834D0002103E091
:100EA4000C4B5B58435004310B480C4B42189A428C
:100EB400F6D30B4A02E0002342F8043B094B9A4262
:100EC400F9D3FFF7C3FF00F011F8FFF7F9FE7047FD
:100ED40000800120800F0008000000202400002072
:100EE4002400002050000020FEE7000070B50D4EE5
:100EF4000D4CA41BA4100025A54209D10B4E0C4C8B
:100F040000F020F8A41BA4100025A54205D170BD53
:100F140056F8253098470135EEE756F825309847BE
:100F24000135F2E7780F0008780F0008780F000801
:100F34007C0F000802440346934200D1704703F833
:100F4400011BF9E7F8B500BFF8BC08BC9E46704722
:0C0F5400F8B500BFF8BC08BC9E46704712
:100F60000000000000000000010203040607080959
:080F700000000000010203046F
:040F7800B9010008B3
:040F7C0095010008D3
:100F8000CF070000A037A04C00FF7F4700007C4245
:100F90000000A04100803B46000048440000F041B2
:040FA0000024F40035
:0400000508000E9D44
:00000001FF
