:020000040800F2
:100000000080012025110008B90F0008BB0F00086F
:10001000BD0F0008BF0F0008C10F0008000000005E
:10002000000000000000000000000000C30F0008F6
:10003000C50F000800000000C70F0008C90F000826
:100040007511000875110008751100087511000878
:100050007511000875110008751100087511000868
:100060007511000875110008751100087511000858
:100070007511000875110008751100087511000848
:100080007511000875110008CD0F00080000000070
:1000900000000000000000000000000075110008D2
:1000A0007511000875110008751100087511000818
:1000B000E50F0008191000087511000875110008F7
:1000C00075110008751100087511000875110008F8
:1000D0007511000875110008751100080000000076
:1000E000B11000087511000875110008000000002B
:1000F0000000000000000000000000007511000872
:100100000000000075110008751100087511000845
:1001100000000000000000000000000000000000DF
:100120007511000875110008751100087511000897
:100130007511000800000000000000000000000031
:100140000000000000000000000000007511000821
:100150007511000875110008751100087511000867
:100160007511000875110008000000000000000073
:10017000000000000000000000000000000000007F
:1001800000000000751100080000000000000000E1
:0401900075110008DD
:1001940010B5054C237833B9044B13B10448AFF3BD
:1001A40000800123237010BD240000200000000003
:1001B400D011000808B5034B1BB103490348AFF342
:1001C400008008BD0000000028000020D0110008B5
:1001D400074B9B6813F0010F07D10B68426822F4A8
:1001E400403213434360002070470120704700BF32
:1001F40000200140836813F0010F14D110B4436848
:1002040023F0407323F480730A688C6822431343F9
:100214004360836823F400634A68134383600020C7
:100224005DF8044B70470120704700004B688268FA
:1002340012F0010F24D110B4E3B1426822F46842F1
:100244008C6823431343436083680E4A1A400B6847
:1002540003F07063CC6823430C6923431343836026
:100264004B68C26A22F470021343C36200205DF833
:10027400044B7047426822F4684213434360E3E747
:1002840001207047FDFCFFC003460279002A57D0C5
:100294000268002A61D0417901291CD019B10229D0
:1002A40024D0012009E02E49486820EA02024A606D
:1002B4001A68086802430A6000209A79002A4ED01E
:1002C40010B4022A27D0032A30D0012A18D00120E2
:1002D4005DF8044B70472249086820EA02020A606C
:1002E4001A68486802434A600020E6E71C49086827
:1002F40002430A601A68486802434A600020DCE747
:100304001C68174AD16821EA0401D1601B6891680E
:100314000B439360DCE71C68114A916821EA0401ED
:1003240091601B68D1680B43D360D1E719680C4A0C
:100334009468214391601B68D1680B43D360C7E77D
:100344000068074A116821EA0001116019685368BE
:1003540023EA010353600020704700207047704770
:10036400003C0140F0B40A6892FAA2F2B2FA82F2B6
:1003740018E00E69C46893FAA3F5B5FA85F56D0023
:10038400032707FA05F524EA050493FAA3F5B5FA59
:1003940085F56D0006FA05F52C43C4604C68022C03
:1003A40036D001320B6833FA02F464D0012494404D
:1003B4002340F6D04E68046893FAA3F5B5FA85F5A0
:1003C4006D00032707FA05F524EA050493FAA3F55B
:1003D400B5FA85F56D0006FA05F52C4304604C6802
:1003E400013C012CC5D88E68846893FAA3F5B5FA4C
:1003F40085F56D0007FA05F524EA050493FAA3F5DB
:10040400B5FA85F56D0006FA05F52C438460B0E76E
:1004140093FAA3F4B4FA84F4072C15D84D69046A4A
:1004240093FAA3F6B6FA86F6B6000F2707FA06F68D
:1004340024EA060493FAA3F3B3FA83F39B0005FAC0
:1004440003F323430362ACE74C69456A1B0A93FA3E
:10045400A3F6B6FA86F6B6000F2707FA06F625EADB
:10046400060593FAA3F3B3FA83F39B0004FA03F3A8
:100474002B43436295E74A68013A012A02D90020D6
:10048400F0BC7047C968426822EA030201FB03F327
:1004940013434360F3E70000034B9B68C3F3031368
:1004A400024AD35CD840704700380240E811000883
:1004B400034B9B68C3F38223024AD35CD840704742
:1004C40000380240F8110008034B9B68C3F3423321
:1004D400024AD35CD840704700380240F811000843
:1004E4000F4B5B6803F4800323B90E4B082803D039
:1004F400002070470C4BF9E7094A506800F03F00B0
:10050400B3FBF0F35068C0F3881000FB03F05368AA
:10051400C3F3014301335B00B0FBF3F0704700BF4A
:10052400003802400024F40000127A0008B5084B99
:100534009B6803F00C03042B07D0082B01D005485B
:1005440008BD0820FFF7CCFFFAE70348F8E700BF2F
:10055400003802400024F40000127A0010B504466A
:10056400FFF7E4FF2060FFF797FF6060FFF7A0FF4D
:10057400A0606068FFF7A8FFE06010BD30B4036AB4
:1005840023F001030362036A4468826922F0730260
:100594000D682A4323F002030D692B4323F0010362
:1005A4004D682B430F4DA84207D044608261CA684E
:1005B40042630362002030BC704723F008034D6996
:1005C40043EA850323F004038D6843EA850324F496
:1005D40080748D692C4324F40074CD6944EA450485
:1005E400E3E700BF0000014030B4036A23F01003C6
:1005F4000362036A4468826922F4E6420D6842EAAF
:10060400052223F020030D6943EA051323F01003A8
:100614004D6843EA0513104DA84207D04460826137
:10062400CA6882630362002030BC704723F08003F1
:100634004D6943EA851323F040038D6843EA85132B
:1006440024F480648D6944EA850424F40064CD694B
:1006540044EAC504E2E700BF0000014030B4036A85
:1006640023F480730362036A4468C26922F073024C
:100674000D682A4323F400730D6943EA052323F428
:1006840080734D6843EA05230F4DA84207D04460A8
:10069400C261CA68C2630362002030BC704723F49D
:1006A40000634D6943EA852323F480638D6843EA3C
:1006B400852324F480548D6944EA051424F40054F9
:1006C400CD6944EA4514E2E70000014030B4036A0E
:1006D40023F480530362036A4468C26922F4E64245
:1006E4000D6842EA052223F400530D6943EA0533F9
:1006F40023F480534D6843EA0533084DA84207D0DC
:100704004460C261CA6802640362002030BC70475E
:1007140024F480448D6944EA8514F1E70000014023
:100724000368244A90420ED0B0F1804F0BD0A2F55A
:100734007C42904207D002F58062904203D002F5D9
:100744008062904203D123F070034A681343194A2C
:1007540090421AD0B0F1804F17D0A2F57C4290425B
:1007640013D002F5806290420FD002F5806290426D
:100774000BD002F59A32904207D002F58062904283
:1007840003D002F58062904203D123F44073CA6817
:10079400134303608B68C3620B888362054B9842E2
:1007A40005D0436943F001034361002070470B7C8B
:1007B4000363F6E70000014008B5102910D009D9F9
:1007C400B1F5807F10D0B1F5805F11D11146FFF7EC
:1007D4007DFF04E001290BD11146FFF7CFFE08BDD0
:1007E4001146FFF701FFFAE71146FFF737FFF6E777
:1007F4000120F4E7C36813F4005F01D001207047BF
:1008040030B585B00D460446C36823F4164323F07F
:100814000C034A68C9680A4329690A43A9690A4357
:100824001343C360AB68026922F44052134303616B
:100834006B69426922F44072134343616846FFF7CF
:100844008DFE304B9C4208D02F4B9C420CD02F4B3A
:100854009C420BD0012005B030BD039B002B4ED031
:100864002A682AB90120F6E7029BF7E7039BF5E71C
:10087400A969B1F5004F20D003EB830303EB830395
:100884009200B3FBF2F3224DA5FB032040090201C1
:1008940091B2642202FB103213013233A5FB03230D
:1008A400C3F34F1303F0F0020A4492B203F00F03B0
:1008B40013449BB2A3600020CDE703EB830303EB57
:1008C40083035200B3FBF2F3114DA5FB032040094F
:1008D400020191B2642202FB1032D3003233A5FB31
:1008E4000323C3F34F135A0002F4F8720A4492B27A
:1008F40003F0070313449BB2A3600020ABE701207D
:10090400A9E700BF0010014000440040001401406A
:100914001F85EB51054BA3FB003080090138044BC4
:10092400586000229A6005221A607047D34D621005
:1009340010E000E0014B1860704700BF2000002069
:10094400F0B58DB000240B94049405940694079498
:1009540008940994384B1A6B42F004021A631A6B18
:1009640002F004020392039A1A6B42F080021A63A3
:100974001A6B02F080020292029A1A6B42F0010290
:100984001A631A6B02F001020192019A1A6B42F087
:1009940002021A631B6B03F002030093009B274FB0
:1009A4004FF40013BB612648436923F0F003F0229F
:1009B40092FAA2F2B2FA82F2022101FA02F213438B
:1009C40043614FF400550A9501268DF82C608DF88B
:1009D4002E600AA8FFF758FC1A4AD06895FAA5F3C6
:1009E400B3FA83F3B340032101FA03F320EA0303C8
:1009F40095FAA5F0D360106895FAA5F3B3FA83F3DA
:100A0400B34001FA03F320EA030395FAA5F5136052
:100A140020230493059606940794089404A9384661
:100A2400FFF7A0FC084BDB68084B83F828434FF41E
:100A340080725A600DB0F0BD0038024000000240E0
:100A4400003801400008024000ED00E000E100E051
:100A540070B592B000240F94109411940A940B94DE
:100A64000C940D940E940994059406940794089498
:100A74003A4B5A6C42F480725A645A6C02F4807293
:100A84000292029A1A6B42F001021A631B6B03F082
:100A940001030193019B022303930323049303A9FA
:100AA4002F48FFF75FFC2F4BDB682F4B83F8124373
:100AB4004FF480221A604FF000750F951094119432
:100AC4002A4E0FA93046FFF795FB0A940B940C9419
:100AD4000D944FF480730E930AA93046FFF7A6FBDA
:100AE400B36823F48063B360736823F020037360F6
:100AF40012A94FF4803341F8243D1D48FFF768FBE9
:100B04001C494FF4407393FAA3F3B3FA83F34FF4FD
:100B14000072DA4051F8223023F01F0343F001033E
:100B240041F82230144C95FAA5F3B3FA83F3DD406F
:100B340054F825304FF0F87292FAA2F0B0FA80F02F
:100B44004FF4401121FA00F00721814023EA010308
:100B540092FAA2F244F8253012B070BD0038024077
:100B64000000024000ED00E000E100E00020014050
:100B7400002301402C2001400C20014030B58FB0EF
:100B8400002409940A940B940C940D942022214679
:100B940001A800F013FB234B1A6C42F001021A6403
:100BA4001B6C03F001030093009B1F4BDB681F4B7E
:100BB40083F81C434FF080521A6040F2E733ADF8DB
:100BC40024300A944FF0FF330B930C9409A94FF08F
:100BD4008040FFF7A5FD4FF080452B6823F080038C
:100BE4002B60AB6823F4804323F00703AB600194CC
:100BF4000294039440F2CF730493059401AA102144
:100C04002846FFF7D9FDAB6923F48063AB616B68B9
:100C140023F070036B60AB6823F08003AB600FB00C
:100C240030BD00BF0038024000ED00E000E100E00C
:100C3400F0B597B00024119412941394149415945D
:100C44002022214609A800F0B9FA039404940594DB
:100C5400069407940894454E336C43F002033364BE
:100C6400336C03F002030293029B414BDB68414B5C
:100C740083F81D434FF000521A606323ADF84430EB
:100C840012944FF6FF73139314943B4D11A9284605
:100C9400FFF746FD2B6823F080032B60AB6823F439
:100CA400804323F00703AB60302309930A940B9429
:100CB40040F2A3130C930D9409AA01212846FFF7CF
:100CC4007BFD2E4FAB6923F00403AB610A940B94B4
:100CD40040F247330C9309AA10212846FFF76CFD14
:100CE400AB6923F48063AB610A940B9440F28F6385
:100CF4000C9309AA4FF480712846FFF75DFD7B68C9
:100D040023F004037B606B6823F070036B60AB68B3
:100D140023F08003AB60336B43F001033363336B25
:100D240003F001030193019B336B43F0020333632C
:100D3400336B03F002030093009BC023039302254B
:100D44000495059406940794089503A90C48FFF7A5
:100D540009FB0123039304950594069407940895CD
:100D640003A90848FFF7FEFA17B0F0BD00380240A7
:100D740000ED00E000E100E0000400401804004041
:100D8400000002400004024030B591B000240994F0
:100D94000A940B940C940D940E940F940594069459
:100DA40007941D4B1A6C42F400321A641A6C02F454
:100DB40000320292029A1A6B42F001021A631B6B10
:100DC40003F001030193019B0C2503950223049373
:100DD400072308930DEB05011048FFF7C3FA4FF4FE
:100DE400E13309930A940B940C940D950E940F948B
:100DF4000B4C09A92046FFF7FDFC236923F490431B
:100E04002361636923F02A036361E36843F40053B5
:100E1400E36011B030BD00BF003802400000024062
:100E24000044004010B5344A136823F00F0343F024
:100E3400020313601368A2F5E632136823F44043F7
:100E440043F40043136002F5E432136823F0F8031B
:100E540043F080031360136843F001031360274BCE
:100E64001B6813F0020FFAD0244A5168244B0B403C
:100E740043F4A84343F010035360536823F440330E
:100E840043F480335360136843F0807313601B4B47
:100E94001B6813F0007FFAD0184B9A6822F0F00216
:100EA4009A609A6822F4E05242F480529A609A68F6
:100EB40022F460429A609A6822F0030242F002022D
:100EC4009A600E4B9B6803F00C03082BF9D10D4C70
:100ED4002046FFF71FFD0C4A136843F00403136018
:100EE4002046FFF727FD054AD2F88C3023F08073A3
:100EF400C2F88C3010BD00BF003C024000380240F4
:100F04000080BFFF00BD010510E000E000B583B024
:100F1400234B5A6C42F480425A645A6C02F4804265
:100F24000192019A1A6C42F080521A641B6C03F00D
:100F340080530093009B1B49CA6822F4E0621204A8
:100F4400120C194B1343CB60FFF76CFFFFF7F8FC4F
:100F5400FFF77EFDFFF712FEFFF76AFEFFF714FFAF
:100F6400124B1A6842F001021A604FF08042116875
:100F740041F001011160D96841F00E01D960D168D6
:100F840041F00401D1601A6A42F4885242F011021D
:100F94001A62074A936843F001039360FEE700BFB7
:100FA4000038024000ED00E00007FA0500040040AC
:100FB400002001407047FEE7FEE7FEE7FEE77047CA
:100FC4007047704770470000044B1B6813F0020F12
:100FD40003D0024B6FF002021A60704700200140F8
:100FE4004FF080431B6913F0040F0ED04FF0804381
:100FF4006FF004021A619A6B044909680A449A63FF
:10100400034A936843F080439360704700000020D4
:101014000020014030B4224BDB6C224A54689168B2
:10102400091B03FB01F1D56891FBF5F10C44106930
:101034005169091A03FB01F191FBF5F1014490692F
:10104400D269121A03FB02F393FBF5F30344164A25
:10105400126912F0080F11D1134B1B6913F0040F1E
:1010640015D1114B1B6913F0020F0ED00E4B6FF00C
:1010740002021A61596B2144596306E00A4A6FF06F
:1010840008011161D06B0344D36330BC7047064B35
:101094006FF004021A61986B01449963F5E700BF8D
:1010A400002001400000002000040040074B5B6961
:1010B40013F4005F08D0054B4FF400525A61044A00
:1010C400536983F020035361704700BF003C014023
:1010D400000002400F49D1F8883043F47003C1F88E
:1010E40088300D4B1A6842F001021A6000209860A3
:1010F4001A6822F0847222F480321A60074A5A6015
:101104001A6822F480221A60D8604FF000638B6062
:10111400704700BF00ED00E00038024010300024AA
:10112400DFF834D0002103E00C4B5B58435004310A
:101134000B480C4B42189A42F6D30B4A02E00023A8
:1011440042F8043B094B9A42F9D3FFF7C3FF00F07E
:1011540011F8FFF7DBFE7047008001200812000839
:101164000000002024000020240000204000002073
:10117400FEE7000070B50D4E0D4CA41BA410002515
:10118400A54209D10B4E0C4C00F020F8A41BA4106E
:101194000025A54205D170BD56F825309847013584
:1011A400EEE756F8253098470135F2E700120008BB
:1011B400001200080012000804120008024403464A
:1011C400934200D1704703F8011BF9E7F8B500BF5B
:1011D400F8BC08BC9E467047F8B500BFF8BC08BC14
:0411E4009E4670476C
:1011E80000000000000000000102030406070809CF
:0811F8000000000001020304E5
:04120000B901000828
:041204009501000848
:10120800CF07000029000000A3010000FF00000034
:101218005300000047030000A70000008F060000ED
:041228000024F400AA
:0400000508001125B9
:00000001FF
