:020000040800F2
:1000000000800120952900082129000823290008E3
:1000100025290008272900082929000800000000D8
:100020000000000000000000000000002B29000874
:100030002D290008000000002F29000831290008A0
:10004000E5290008E5290008E5290008E529000858
:10005000E5290008E5290008E5290008E529000848
:10006000E5290008E5290008E5290008E529000838
:10007000E5290008E5290008E529000839290008D4
:10008000E5290008E5290008E5290008000000002E
:10009000000000000000000000000000E52900084A
:1000A000E5290008E5290008E5290008E5290008F8
:1000B000E5290008E5290008E5290008E5290008E8
:1000C000E5290008E5290008E5290008E5290008D8
:1000D000E5290008E5290008E529000800000000DE
:1000E000E5290008E5290008E529000800000000CE
:1000F000000000000000000000000000E5290008EA
:1001000000000000E5290008E5290008E5290008AD
:1001100000000000000000000000000000000000DF
:10012000E5290008E5290008E5290008E529000877
:10013000E5290008000000000000000000000000A9
:10014000000000000000000000000000E529000899
:10015000E5290008E5290008E5290008E529000847
:10016000E5290008E5290008000000000000000063
:10017000000000000000000000000000000000007F
:1001800000000000E5290008000000000000000059
:04019000E529000855
:1001980010B5054C237833B9044B13B10448AFF3B9
:1001A80000800123237010BD0C0000200000000017
:1001B800D436000808B5034B1BB103490348AFF315
:1001C800008008BD0000000010000020D4360008A0
:1001D80081F0004102E000BF83F0004330B54FEAF0
:1001E80041044FEA430594EA050F08BF90EA020F5D
:1001F8001FBF54EA000C55EA020C7FEA645C7FEAF0
:10020800655C00F0E2804FEA5454D4EB5555B8BF12
:100218006D420CDD2C4480EA020281EA030382EA83
:10022800000083EA010180EA020281EA0303362D15
:1002380088BF30BD11F0004F4FEA01314FF4801CE8
:100248004CEA113102D0404261EB410113F0004FFA
:100258004FEA03334CEA133302D0524263EB4303B1
:1002680094EA050F00F0A780A4F10104D5F1200E4F
:100278000DDB02FA0EFC22FA05F2801841F10001AA
:1002880003FA0EF2801843FA05F359410EE0A5F17E
:1002980020050EF1200E012A03FA0EFC28BF4CF0AF
:1002A800020C43FA05F3C01851EBE37101F0004565
:1002B80007D54FF0000EDCF1000C7EEB00006EEB72
:1002C8000101B1F5801F1BD3B1F5001F0CD34908FC
:1002D8005FEA30004FEA3C0C04F101044FEA445253
:1002E80012F5800F80F09A80BCF1004F08BF5FEADA
:1002F800500C50F1000041EB045141EA050130BDBA
:100308005FEA4C0C404141EB010111F4801FA4F15C
:100318000104E9D191F0000F04BF01460020B1FAB1
:1003280081F308BF2033A3F10B03B3F120020CDAE9
:100338000C3208DD02F1140CC2F10C0201FA0CF0C7
:1003480021FA02F10CE002F11402D8BFC2F1200C2C
:1003580001FA02F120FA0CFCDCBF41EA0C019040E2
:10036800E41AA2BF01EB0451294330BD6FEA04042B
:100378001F3C1CDA0C340EDC04F11404C4F1200216
:1003880020FA04F001FA02F340EA030021FA04F328
:1003980045EA030130BDC4F10C04C4F1200220FA7F
:1003A80002F001FA04F340EA0300294630BD21FABD
:1003B80004F0294630BD94F0000F83F4801306BF83
:1003C80081F480110134013D4EE77FEA645C18BF77
:1003D8007FEA655C29D094EA050F08BF90EA020F0E
:1003E80005D054EA000C04BF1946104630BD91EA06
:1003F800030F1EBF0021002030BD5FEA545C05D109
:100408004000494128BF41F0004130BD14F5800447
:100418003CBF01F5801130BD01F0004545F0FE41BB
:1004280041F470014FF0000030BD7FEA645C1ABFF0
:10043800194610467FEA655C1CBF0B46024650EA27
:10044800013406BF52EA033591EA030F41F4002153
:1004580030BD00BF90F0000F04BF0021704730B5D9
:100468004FF4806404F132044FF000054FF00001AE
:1004780050E700BF90F0000F04BF0021704730B56F
:100488004FF4806404F1320410F0004548BF404244
:100498004FF000013EE700BF42004FEAE2014FEA99
:1004A80031014FEA02701FBF12F07F4393F07F4F74
:1004B80081F06051704732F07F4208BF704793F077
:1004C8007F4F04BF41F40021704730B54FF460748A
:1004D80001F0004521F000411CE700BF50EA01028D
:1004E80008BF704730B54FF000050AE050EA010236
:1004F80008BF704730B511F0004502D5404261EBA6
:1005080041014FF4806404F132045FEA915C3FF4E6
:10051800D8AE4FF003025FEADC0C18BF03325FEA83
:10052800DC0C18BF033202EBDC02C2F1200300FA34
:1005380003FC20FA02F001FA03FE40EA0E0021FA59
:1005480002F11444BDE600BF70B54FF0FF0C4CF447
:10055800E06C1CEA11541DBF1CEA135594EA0C0FF9
:1005680095EA0C0F00F0DEF82C4481EA030621EA34
:100578004C5123EA4C5350EA013518BF52EA03356F
:1005880041F4801143F4801338D0A0FB02CE4FF021
:100598000005E1FB02E506F00042E0FB03E54FF051
:1005A8000006E1FB03569CF0000F18BF4EF0010E49
:1005B800A4F1FF04B6F5007F64F5407404D25FEA45
:1005C8004E0E6D4146EB060642EAC62141EA5551F8
:1005D8004FEAC52040EA5E504FEACE2EB4F1FD0C3A
:1005E80088BFBCF5E06F1ED8BEF1004F08BF5FEAB8
:1005F800500E50F1000041EB045170BD06F000466A
:1006080046EA010140EA020081EA0301B4EB5C0416
:10061800C2BFD4EB0C0541EA045170BD41F480110E
:100628004FF0000E013C00F3AB8014F1360FDEBF33
:10063800002001F0004170BDC4F10004203C35DA0F
:100648000C341BDC04F11404C4F1200500FA05F392
:1006580020FA04F001FA05F240EA020001F0004233
:1006680021F0004110EBD37021FA04F642EB0601A9
:100678005EEA430E08BF20EAD37070BDC4F10C04D3
:10068800C4F1200500FA04F320FA05F001FA04F297
:1006980040EA020001F0004110EBD37041F1000183
:1006A8005EEA430E08BF20EAD37070BDC4F120058E
:1006B80000FA05F24EEA020E20FA04F301FA05F2F6
:1006C80043EA020321FA04F001F0004121FA04F29E
:1006D80020EA020000EBD3705EEA430E08BF20EA6E
:1006E800D37070BD94F0000F0FD101F000464000A8
:1006F80041EB010111F4801F08BF013CF7D041EA2A
:10070800060195F0000F18BF704703F0004652002D
:1007180043EB030313F4801F08BF013DF7D043EAFE
:100728000603704794EA0C0F0CEA135518BF95EAB4
:100738000C0F0CD050EA410618BF52EA4306D1D13B
:1007480081EA030101F000414FF0000070BD50EA5A
:10075800410606BF1046194652EA430619D094EAE4
:100768000C0F02D150EA013613D195EA0C0F05D1CE
:1007780052EA03361CBF104619460AD181EA030122
:1007880001F0004141F0FE4141F470014FF00000DA
:1007980070BD41F0FE4141F4780170BD70B54FF075
:1007A800FF0C4CF4E06C1CEA11541DBF1CEA1355F5
:1007B80094EA0C0F95EA0C0F00F0A7F8A4EB0504D7
:1007C80081EA030E52EA03354FEA013100F08880CE
:1007D8004FEA03334FF0805545EA131343EA126397
:1007E8004FEA022245EA111545EA10654FEA00264C
:1007F8000EF000419D4208BF964244F1FD0404F505
:10080800407402D25B084FEA3202B61A65EB030560
:100818005B084FEA32024FF480104FF4002CB6EB1D
:10082800020E75EB030E22BFB61A754640EA0C009D
:100838005B084FEA3202B6EB020E75EB030E22BFDD
:10084800B61A754640EA5C005B084FEA3202B6EB1E
:10085800020E75EB030E22BFB61A754640EA9C00DD
:100868005B084FEA3202B6EB020E75EB030E22BFAD
:10087800B61A754640EADC0055EA060E18D04FEA6B
:10088800051545EA16754FEA06164FEAC30343EA0B
:1008980052734FEAC2025FEA1C1CC0D111F4801FD8
:1008A8000BD141EA00014FF000004FF0004CB6E7D1
:1008B80011F4801F04BF01430020B4F1FD0C88BF70
:1008C800BCF5E06F3FF6AFAEB5EB030C04BFB6EB7B
:1008D800020C5FEA500C50F1000041EB045170BD6E
:1008E8000EF0004E4EEA113114EB5C04C2BFD4EB9B
:1008F8000C0541EA045170BD41F480114FF0000E1F
:10090800013C90E645EA060E8DE60CEA135594EA9A
:100918000C0F08BF95EA0C0F3FF43BAF94EA0C0F9D
:100928000AD150EA01347FF434AF95EA0C0F7FF412
:1009380025AF104619462CE795EA0C0F06D152EA66
:1009480003353FF4FDAE1046194622E750EA41064A
:1009580018BF52EA43067FF4C5AE50EA41047FF45B
:100968000DAF52EA43057FF4EBAE12E74FEA4102BE
:10097800B2F1E04324BFB3F5001CDCF1FE5C0DD9F5
:1009880001F0004C4FEAC0024CEA5070B2F1004F3F
:1009980040EB830008BF20F00100704711F0804F42
:1009A80021D113F13872BCBF01F00040704741F407
:1009B80080114FEA5252C2F11802C2F1200C10FA0B
:1009C8000CF320FA02F018BF40F001004FEAC123EF
:1009D8004FEAD32303FA0CFC40EA0C0023FA02F393
:1009E8004FEA4303CCE77FEA625307D150EA013369
:1009F8001EBF4FF0FE4040F44000704701F0004039
:100A080040F0FE4040F40000704700BF53B94AB9B7
:100A1800002908BF00281CBF4FF0FF314FF0FF30FE
:100A280000F072B9ADF1080C6DE904CE00F006F8DB
:100A3800DDF804E0DDE9022304B070472DE9F04752
:100A4800089E04468846002B4BD18A42154667D932
:100A5800B2FA82F24AB1C2F1200701FA02F320FA8F
:100A680007F7954047EA030894404FEA154E230CD0
:100A7800B8FBFEF71FFA85FC0EFB178843EA08430C
:100A880007FB0CF1994209D9EB1807F1FF3080F008
:100A98001B81994240F21881023F2B445B1AA4B291
:100AA800B3FBFEF00EFB103344EA034400FB0CFCDE
:100AB800A44509D92C1900F1FF3380F00781A4451A
:100AC80040F2048102382C4440EA0740A4EB0C04AD
:100AD80000271EB1D4400023C6E900433946BDE8CB
:100AE800F0878B4209D9002E00F0EB800027C6E979
:100AF800000138463946BDE8F087B3FA83F7002F7E
:100B080047D18B4202D3824200F2FA80841A61EB09
:100B1800030301209846002EE0D0C6E90048DDE72F
:100B280002B9FFDEB2FA82F2002A40F08F80491B38
:100B38004FEA154E1FFA85F80127B1FBFEFC230C7E
:100B48000EFB1C1143EA014308FB0CF1994207D93B
:100B5800EB180CF1FF3002D2994200F2CD808446A6
:100B6800591AA3B2B1FBFEF00EFB101443EA044479
:100B780008FB00F8A04507D92C1900F1FF3302D271
:100B8800A04500F2B6801846A4EB080440EA0C40E1
:100B98009FE7C7F1200CBB4022FA0CFE4EEA030E79
:100BA80001FA07F420FA0CF521FA0CF34FEA1E4873
:100BB8002543B3FBF8F92C0C08FB19331FFA8EFAFE
:100BC80044EA034309FB0AF49C4202FA07F200FADA
:100BD80007F10BD91EEB030309F1FF3080F0878082
:100BE8009C4240F28480A9F1020973441B1BADB2F8
:100BF800B3FBF8F008FB103345EA034400FB0AFA9C
:100C0800A24508D91EEB040400F1FF336BD2A245BC
:100C180069D90238744440EA0940A0FB0289A4EB70
:100C28000A044C45C2464B4654D351D0002E69D0D5
:100C3800B1EB0A0564EB030404FA0CFCFD40FC402C
:100C48004CEA0505C6E90054002747E7C2F120032E
:100C580020FA03F7954001FA02F021FA03F34FEA6C
:100C6800154E3843010CB3FBFEF71FFA85F80EFB4F
:100C7800173341EA034107FB08F38B4204FA02F4F5
:100C880007D9691807F1FF3C2FD28B422DD9023FB3
:100C98002944CB1A81B2B3FBFEF00EFB103341EAB4
:100CA800034100FB08F38B4207D9691800F1FF3CA8
:100CB80017D28B4215D902382944C91A40EA074786
:100CC8003BE73746304609E70746E7E61846FBE6BE
:100CD8004145ABD2B8EB020A69EB0E020138134664
:100CE800A4E76046E9E7184695E76746D1E78146F5
:100CF8007CE702382C4447E7ACF1020C2B442FE781
:100D0800384608E73746E9E6704700BF10B504469D
:100D18000E4B18784FF47A73B3FBF0F30C4A106853
:100D2800B0FBF3F000F096F868B90F2C01D9012058
:100D38000AE0002221464FF0FF3000F049F8034B4B
:100D48005C60002000E0012010BD00BF0000002012
:100D58000800002008B50B4B1A6842F400721A60AC
:100D68001A6842F480621A601A6842F480721A6043
:100D7800032000F01BF80020FFF7C8FF01F00AFD70
:100D8800002008BD003C0240034A1168034B1B7851
:100D98000B441360704700BF2800002000000020AB
:100DA800014B1868704700BF28000020074AD36825
:100DB80023F4E0631B041B0C000200F4E0601843FA
:100DC80040F0BF6040F40030D060704700ED00E0B4
:100DD80030B4174BDB68C3F30223C3F10704042CB8
:100DE80028BF04241D1D062D18D9033B4FF0FF35DD
:100DF80005FA04F421EA0401994005FA03F322EA0A
:100E08000303194300280BDB0901C9B200F1604054
:100E180000F5614080F8001330BC70470023E5E717
:100E280000F00F000901C9B2024B1954F4E700BFE2
:100E380000ED00E014ED00E0002807DB00F01F02E1
:100E4800400901239340024A42F82030704700BF0E
:100E580000E100E00138B0F1807F0AD2064B58600B
:100E6800064AF02182F823100020986007221A60B1
:100E780070470120704700BF10E000E000ED00E07F
:100E880030B405682C6824F480242C6004686360FE
:100E98008368402B05D0036899600368DA6030BC2A
:100EA800704703689A600368D960F8E70268D3B2AC
:100EB800103B0B49A1FB03131B090A49C95CC16517
:100EC800032B06D822F47F7222F003028265806D1C
:100ED800704722F47F7222F0030204328265F6E73B
:100EE800ABAAAAAAEC360008836A826992B9012BD8
:100EF8000AD01BB1022B01D000207047C36A13F03F
:100F0800807F2CD100207047C36AB3F1C07F28D0FE
:100F180000207047B2F5005F05D0022B29D9032BBA
:100F280015D000207047032B03D8DFE803F01C041A
:100F38001C0A00207047C36A13F0807F15D1002077
:100F48007047C36AB3F1C07F11D000207047C36AED
:100F580013F0807F01D001207047002070470120E6
:100F68007047012070470120704701207047012019
:100F7800704701207047000070B50446FFF710FF66
:100F8800002C5BD00546002384F83430022384F813
:100F980035302268136823F00103136023681A6848
:100FA80012F0010F0AD0FFF7FBFE401B0528F5D908
:100FB80020236365032084F8350070BD1A68204833
:100FC80010406168A2680A43E1680A4321690A433C
:100FD80061690A43A1690A43E1690A43216A0A432C
:100FE8000243616A04291ED01A602668756925F0D3
:100FF8000705636A1D43042B07D1A36A1D43E36AEF
:101008001BB12046FFF770FF90B975612046FFF7C6
:101018004DFFE26D3F23934083600020606501230C
:1010280084F83530C9E7E16A206B01430A43DBE7FE
:1010380040236365012084F83500BEE70120BCE742
:101048003F8010F038B5856D90F83440012C31D0D0
:10105800012480F8344090F83540E4B2012C04D0E3
:10106800002380F83430022038BD0446022084F87A
:101078003500002060652046FFF702FFE26D3F2340
:101088009340AB602268136843F01603136022682C
:10109800536943F080035361236C23B122681368BA
:1010A80043F0080313602268136843F001031360D8
:1010B8000020D9E70220D7E7F0B583B00446002323
:1010C8000193724B1D68724BA3FB0535AD0A876D02
:1010D8003E68C26D08239340334210D003681A68F3
:1010E80012F0040F0BD01A6822F004021A60C26DC5
:1010F80008239340BB60436D43F001034365E26DF1
:1011080001239340334209D02268526912F0800FBC
:1011180004D0BB60636D43F002036365E26D042392
:101128009340334209D02268126812F0020F04D0AB
:10113800BB60636D43F004036365E26D1023934065
:10114800334224D02268126812F0080F1FD0BB6007
:1011580023681A6812F4802F0DD01B6813F4002F2F
:1011680004D1236C9BB12046984710E0A36C73B15F
:10117800204698470BE01A6812F4807F03D11A685A
:1011880022F008021A60236C0BB120469847E26DE2
:1011980020239340334255D02268126812F0100F72
:1011A80050D0BB6094F83530DBB2052B0ED02368E5
:1011B8001A6812F4802F33D01B6813F4002F2AD139
:1011C800636C002B3ED0204698473BE022681368AA
:1011D80023F0160313602268536923F080035361D8
:1011E800236CA3B12268136823F008031360E26D2F
:1011F8003F239340BB60002384F83430012384F8F4
:101208003530236D002B3FD0204698473CE0A36C37
:10121800002BE7D1EBE7E36BA3B12046984711E039
:101228001A6812F4807F09D11A6822F010021A6035
:10123800002384F83430012384F83530E36B0BB194
:1012480020469847636DFBB1636D13F0010F17D00B
:10125800052384F835302268136823F001031360EE
:10126800019B01330193AB4204D823681B6813F038
:10127800010FF5D1002384F83430012384F8353088
:10128800E36C0BB12046984703B0F0BD080000207E
:10129800B5814E1B00230F2B00F2C580F0B482B03D
:1012A80039E0042200E00022B2403A4302345E4EA4
:1012B80046F824205D4A1468EA4302EA04064F68A7
:1012C80017F4803F01D045EA0406584C266064684C
:1012D80002EA04064F6817F4003F01D045EA040605
:1012E800524C6660A46802EA04064F6817F4801F2F
:1012F80001D045EA04064D4CA660E46822404E68D9
:1013080016F4001F01D045EA0402484CE26001339C
:101318000F2B00F2858001229A400C6804EA02052E
:10132800AA42F4D14C68022C01D0122C10D1DE084C
:10133800083650F826C003F00704A7000F24BC4065
:101348002CEA040C0C69BC4044EA0C0440F8264022
:1013580004685F000326BE40F64306EA040C4C68A6
:1013680004F00304BC4044EA0C0404604C6804F133
:10137800FF3CBCF1010F03D9112C01D0122C10D164
:10138800846806EA040CCC68BC4044EA0C04846017
:10139800446824EA02024C68C4F300149C401443D5
:1013A8004460C26816408A68BA403243C2604A68DC
:1013B80012F0805FABD0002201921D4A546C44F4B5
:1013C80080445464526C02F480420192019A9C0851
:1013D800A61C154A52F8267003F0030296000F2245
:1013E800B24027EA0207134A90423FF45CAF02F585
:1013F800806290420ED002F5806290420CD002F5D5
:10140800806290420AD002F5806290423FF449AF70
:10141800072249E7012247E7022245E7032243E77B
:1014280002B0F0BC7047704700380140003C0140F2
:10143800003802400000024012B909048161704777
:1014480081617047002800F0BB8170B582B0044606
:10145800036813F0010F3BD0A74B9B6803F00C0304
:10146800042B2CD0A44B9B6803F00C03082B21D031
:101478006368B3F5803F4FD0B3F5A02F52D09E4B91
:101488001A6822F480321A601A6822F480221A60DC
:101498006368002B50D0FFF783FC0546964B1B680A
:1014A80013F4003F14D1FFF77BFC401B6428F5D9E7
:1014B80003208AE1904B5B6813F4800FD8D08E4BE1
:1014C8001B6813F4003F03D06368002B00F07A8197
:1014D800236813F0020F55D0874B9B6813F00C0F4D
:1014E8003ED0854B9B6803F00C03082B33D0E36890
:1014F800002B68D0814B01221A60FFF751FC05468A
:101508007D4B1B6813F0020F54D1FFF749FC401BB9
:101518000228F5D9032058E1774A136843F4803349
:101528001360B5E7744B1A6842F480221A601A688F
:1015380042F480321A60ABE7FFF732FC05466E4B87
:101548001B6813F4003FC3D0FFF72AFC401B642834
:10155800F5D9032039E1684B5B6813F4800FC6D1D5
:10156800654B1B6813F0020F04D0E368012B01D010
:1015780001202AE1604A136823F0F803216943EA4D
:10158800C1031360236813F0080F40D0636963B385
:101598005B4B01221A60FFF703FC0546564B5B6F55
:1015A80013F0020F33D1FFF7FBFB401B0228F5D9DC
:1015B80003200AE1504A136823F0F803216943EA3B
:1015C800C1031360DEE74D4B00221A60FFF7E8FB0A
:1015D8000546494B1B6813F0020FD3D0FFF7E0FB19
:1015E800401B0228F5D90320EFE0454B00221A6082
:1015F800FFF7D6FB0546404B5B6F13F0020F06D092
:10160800FFF7CEFB401B0228F5D90320DDE0236855
:1016180013F0040F79D0384B1B6C13F0805F33D173
:1016280000230193344B1A6C42F080521A641B6CED
:1016380003F080530193019B0125324B1B6813F47F
:10164800807F23D0A368012B34D0052B38D02A4BB8
:101658001A6F22F001021A671A6F22F004021A6741
:10166800A368002B36D0FFF79BFB0646224B1B6F67
:1016780013F0020F48D1FFF793FB801B41F2883328
:101688009842F3D90320A0E00025D6E71D4A136845
:1016980043F480731360FFF783FB0646194B1B68FE
:1016A80013F4807FCED1FFF77BFB801B0228F5D98E
:1016B80003208AE0104A136F43F001031367CFE752
:1016C8000D4B1A6F42F004021A671A6F42F00102BA
:1016D8001A67C5E7FFF764FB0646074B1B6F13F055
:1016E800020F11D0FFF75CFB801B41F28833984250
:1016F800F3D9032069E000BF0038024000004742E8
:10170800800E474200700040E5B9A369002B5BD00A
:10171800304A926802F00C02082A58D0022B17D0DF
:101728002D4B00221A60FFF73BFB0446294B1B6830
:1017380013F0007F42D0FFF733FB001B0228F5D9D6
:10174800032042E0234A136C23F080531364DCE740
:10175800214B00221A60FFF723FB05461D4B1B682F
:1017680013F0007F06D0FFF71BFB401B0228F5D9BA
:1017780003202AE0E369226A1343626A43EA821378
:10178800A26A5208013A43EA0243E26A43EA026360
:10179800104A5360104B01221A60FFF701FB044600
:1017A8000C4B1B6813F0007F06D1FFF7F9FA001BFA
:1017B8000228F5D9032008E0002006E0002004E014
:1017C80001207047012000E0002002B070BD012018
:1017D800FBE700BF0038024060004742324B9B687D
:1017E80003F00C03042B5CD0082B01D02F48704762
:1017F8002DE9F04B2C4B5A6802F03F025B6813F45A
:10180800800F2BD0284B5B68C3F388131E46002734
:101818005C010025E41A65EB0705A90141EA94611A
:10182800A001001B61EB0501CB0043EA5073C40023
:10183800A01943EB07014B0243EAD0534402204668
:1018480019460023FFF7E2F8174B5B68C3F301431F
:1018580001335B00B0FBF3F0BDE8F08B124B5B6823
:10186800C3F388131E4600275C010025E41A65EBC4
:101878000705A90141EA9461A001001B61EB05017C
:10188800CB0043EA5073C400A01943EB07018B0255
:1018980043EA90538402204619460023FFF7B6F81E
:1018A800D2E70348704700BF003802400024F40024
:1018B80000127A00002800F09D8070B504464F4B56
:1018C8001B6803F00F038B4209D2CBB24B4A13704B
:1018D800136803F00F038B4201D0012070BD236809
:1018E80013F0020F17D013F0040F04D0444A936882
:1018F80043F4E0539360236813F0080F04D0404A80
:10190800936843F4604393603D4A936823F0F0037F
:10191800A068034393600D46236813F0010F32D08B
:101928006368012B21D09A1E012A25D9344A1268EE
:1019380012F0020F60D032498A6822F00302134382
:101948008B60FFF72DFA06462D4B9B6803F00C03BE
:101958006268B3EB820F16D0FFF722FA801B41F2C0
:1019680088339842F0D90320B8E7254A126812F460
:10197800003FE0D10120B1E7214A126812F0007F50
:10198800D9D10120AAE71D4B1B6803F00F03AB4216
:1019980009D9EAB2194B1A701B6803F00F03AB425E
:1019A80001D001209AE7236813F0040F06D0144AE7
:1019B800936823F4E053E1680B439360236813F0C2
:1019C800080F07D00E4A936823F46043216943EA5D
:1019D800C1039360FFF702FF094B9B68C3F303132E
:1019E800084AD35CD840084B18600020FFF78EF9EE
:1019F800002073E70120704701206FE7003C024098
:101A080000380240F436000808000020014B18682E
:101A1800704700BF0800002008B5FFF7F7FF044B28
:101A28009B68C3F38223034AD35CD84008BD00BF38
:101A3800003802400437000808B5FFF7E7FF044BF9
:101A48009B68C3F34233034AD35CD84008BD00BF48
:101A5800003802400437000870B4036A23F0010319
:101A68000362036A4268846924F073040D6845EAD6
:101A7800040623F002048B6823430D4DA84209D0C5
:101A88000B4DA8420DD0426086614A6842630362EA
:101A980070BC704723F00803CC68234323F0040389
:101AA800EEE722F440724C6914438A692243EAE75C
:101AB8000000014030B4036A23F480730362036AB0
:101AC8004268C46924F073040D682C4323F400733E
:101AD8008D6843EA05230F4DA84209D00D4DA84251
:101AE8000ED04260C4614A68C263036230BC70476A
:101AF80023F40063CD6843EA052323F48063EDE70C
:101B080022F440524D6942EA05128D6942EA0512F3
:101B1800E7E700BF0000014030B4036A23F48053B4
:101B28000362036A4468C26922F4E6420D6842EA25
:101B3800052223F400538D6843EA0533074DA84274
:101B480006D04460C2614A680264036230BC7047D0
:101B580024F480444D6944EA8514F2E7000001400A
:101B680010B4036A046A24F001040462846924F04E
:101B7800F00444EA021223F00A030B438261036271
:101B88005DF8044B704710B4036A23F01003036236
:101B98008469036A24F4704444EA023223F0A003FF
:101BA80043EA0113826103625DF8044B704783685E
:101BB80023F07003194341F00701816070477047B3
:101BC800704710B5846B012384F83D30636A834203
:101BD8000BD0A36A834210D0E36A834210D0236BF0
:101BE800834204D10823237701E001232377204689
:101BF800FFF7E6FF0023237710BD02232377F6E7DC
:101C080004232377F3E7704710B5846B012384F826
:101C18003D30636A83420BD0A36A834210D0E36AE3
:101C2800834210D0236B834204D10823237701E039
:101C3800012323772046FFF7E6FF0023237710BD13
:101C480002232377F6E704232377F3E7704708B5E1
:101C5800806B012380F83D30FFF7F8FF08BD0000D6
:101C68000368254A90420ED0B0F1804F0BD0A2F500
:101C78007C42904207D002F58062904203D002F580
:101C88008062904203D123F070034A6813431A4AD2
:101C980090421AD0B0F1804F17D0A2F57C42904202
:101CA80013D002F5806290420FD002F58062904214
:101CB8000BD002F59A32904207D002F5806290422A
:101CC80003D002F58062904203D123F44073CA68BE
:101CD800134323F080034A69134303608B68C3628C
:101CE8000B688362044B984202D00123436170471A
:101CF8000B690363F9E700BF00000140A8B110B504
:101D0800044690F83D305BB1022384F83D30211D34
:101D18002068FFF7A5FF012384F83D30002010BD9F
:101D280080F83C3000F056FDEEE701207047A8B17E
:101D380010B5044690F83D305BB1022384F83D307D
:101D4800211D2068FFF78CFF012384F83D30002017
:101D580010BD80F83C30FFF732FFEEE701207047F6
:101D680030B4036A23F010030362036A446882698B
:101D780022F4E6420D6842EA052223F020038D682A
:101D880043EA05130E4DA84209D00D4DA8420ED0C6
:101D9800446082614A688263036230BC704723F002
:101DA8008003CD6843EA051323F04003EDE724F4EC
:101DB80040644D6944EA85048D6944EA8504E7E78F
:101DC8000000014038B590F83C30012B66D00D4634
:101DD8000446012380F83C30022380F83D300C2A69
:101DE8001AD8DFE802F00719191920191919341936
:101DF800191947000068FFF72FFE2268936943F01E
:101E0800080393612268936923F0040393612268AD
:101E1800936929690B439361012384F83D300020BD
:101E280084F83C0038BD0068FFF79AFF2268936980
:101E380043F4006393612268936923F48063936198
:101E480022689369296943EA01239361E4E70068FA
:101E5800FFF730FE2268D36943F00803D361226894
:101E6800D36923F00403D3612268D36929690B433A
:101E7800D361D1E70068FFF74FFE2268D36943F4C6
:101E88000063D3612268D36923F48063D361226835
:101E9800D369296943EA0123D361BDE70220C1E779
:101EA80010B4846824F47F4442EA03230B43234399
:101EB80083605DF8044B704790F83C30012B66D086
:101EC80010B50446012380F83C30022380F83D30E9
:101ED8000268936823F47F4323F0770393600B68C9
:101EE800402B4AD013D9602B3DD01ED9702B28D057
:101EF800B3F5005F30D1CB684A6889680068FFF79E
:101F0800CFFF2268936843F48043936024E0102B4A
:101F180006D004D9202B03D0302B01D01CE0DBB92C
:101F280019462068FFF743FE16E0502B14D1CA6803
:101F380049680068FFF714FE50212068FFF737FE54
:101F48000AE0CB684A6889680068FFF7A9FF226839
:101F5800936843F077039360012384F83D300020B1
:101F680084F83C0010BDCA6849680068FFF70BFE9A
:101F780060212068FFF71BFEEEE7CA684968006821
:101F8800FFF7EEFD40212068FFF711FEE4E702208D
:101F9800704710B401F01F01012303FA01F4036A2A
:101FA80023EA04030362036A8A40134303625DF869
:101FB800044B704770B590F83D40E4B2022C00F035
:101FC8008F8090F83D40E4B2012C0DD016460D46A6
:101FD80004460C2927D8DFE801F0102626263B26E0
:101FE80026265226262668001AB1022480F83D408B
:101FF800ECE7002BF9D0012029E0426A3E49D16381
:10200800426A3E491164426A3D49D16402683432E9
:102018003146406AFFF716F8002863D12268D36872
:1020280043F40073D360012229462068FFF7B1FF0B
:102038002368344A93424ED02268936803F007031A
:10204800062B57D0136843F001031360002070BDBE
:10205800826A2949D163826A28491164826A2849B7
:10206800D164026838323146806AFEF7EBFF0028F7
:102078003AD12268D36843F48063D360D3E7C26A55
:102088001D49D163C26A1D491164C26A1C49D164E1
:1020980002683C323146C06AFEF7D4FF30BB226882
:1020A800D36843F40063D360BDE7026B1249D16380
:1020B800026B12491164026B1149D1640268403203
:1020C8003146006BFEF7BEFF90B92268D36843F42F
:1020D8008053D360A7E75A6C42F400425A64ABE7D6
:1020E8000220B4E70120B2E70120B0E70120AEE703
:1020F8000120ACE70020AAE7CB1B0008111C000850
:10210800571C00080000014090F83C30012B1CD0FF
:1021180070B4012680F83C60022380F83D300268E4
:102128005568936825F070050C682C4323F08005EA
:102138004B682B4354600268936080F83D6000232D
:1021480080F83C30184670BC704702207047000089
:102158002DE9F84304460268136923F44053C16823
:102168000B43136183680269134342691343C269CD
:102178001A430168CB6823F4164323F00C03134376
:10218800CB600268536923F4407381690B43536140
:10219800C369B3F5004F60D00368B84A934200F0B2
:1021A800148102F58062934200F00F81FFF734FC3E
:1021B80000EB800000EB80006568AD00B0FBF5F532
:1021C800AF4FA7FB05356D092E01FFF725FC00EB86
:1021D800800000EB80006568AD00B0FBF5F9FFF703
:1021E8001BFC00EB800000EB80006568AD00B0FBD5
:1021F800F5F5A7FB05356D094FF0640808FB159543
:102208002D013235A7FB05356D0905F0F00535447C
:10221800FFF702FC00EB800000EB80006668B60068
:10222800B0FBF6F6FFF7F8FB00EB800000EB800050
:1022380063689B00B0FBF3F0A7FB0030400908FB84
:1022480010684FEA081808F13208A7FB0837C7F3E7
:10225800431723682F449F600DE10368874A934220
:102268005BD002F58062934257D0FFF7D5FB00EBB5
:10227800800000EB800065686D00B0FBF5F5804FCD
:10228800A7FB05356D092E01FFF7C6FB00EB8000A3
:1022980000EB800065686D00B0FBF5F9FFF7BCFB4B
:1022A80000EB800000EB800065686D00B0FBF5F581
:1022B800A7FB05356D094FF0640808FB1595ED007F
:1022C8003235A7FB05356D096D0005F4F875354401
:1022D800FFF7A2FB00EB800000EB80006668760049
:1022E800B0FBF6F6FFF798FB00EB800000EB8000F0
:1022F80063685B00B0FBF3F3A7FB03235B0908FBF0
:1023080013684FEAC80808F13208A7FB0837C7F373
:10231800421723682F449F60ADE0FFF78DFB00EB69
:10232800800000EB800065686D00B0FBF5F5544F48
:10233800A7FB05356D092E01FFF77EFB00EB80003A
:1023480000EB800065686D00B0FBF5F9FFF774FBE2
:1023580000EB800000EB800065686D00B0FBF5F5D0
:10236800A7FB05356D094FF0640808FB1595ED00CE
:102378003235A7FB05356D096D0005F4F875354450
:10238800FFF75AFB00EB800000EB800066687600E0
:10239800B0FBF6F6FFF750FB00EB800000EB800087
:1023A80063685B00B0FBF3F3A7FB03235B0908FB3F
:1023B80013684FEAC80808F13208A7FB0837C7F3C3
:1023C800421723682F449F6055E0FFF735FB00EB69
:1023D800800000EB80006568AD00B0FBF5F5284F84
:1023E800A7FB05356D092E01FFF726FB00EB8000E2
:1023F80000EB80006568AD00B0FBF5F9FFF71CFB4A
:1024080000EB800000EB80006568AD00B0FBF5F5DF
:10241800A7FB05356D094FF0640808FB15952D01DC
:102428003235A7FB05356D0905F0F0053544FFF792
:1024380003FB00EB800000EB80006668B600B0FB91
:10244800F6F6FFF7F9FA00EB800000EB800063680E
:102458009B00B0FBF3F0A7FB0030400908FB1068B5
:102468004FEA081808F13208A7FB0837C7F34317E3
:1024780023682F449F60BDE8F88300BF0010014027
:102488001F85EB5158B310B5044690F839300BB39B
:10249800242384F839302268D36823F40053D360A6
:1024A8002046FFF755FE2268136923F49043136111
:1024B8002268536923F02A0353612268D36843F4DE
:1024C8000053D3600020E063202384F8393084F877
:1024D8003A3010BD80F8383000F0E8F9D8E701202C
:1024E8007047000030B58BB000240594069407941B
:1024F800089409940194224B1A6B42F004021A635F
:102508001A6B02F004020192019A02941A6B42F0CB
:1025180080021A631A6B02F080020292029A0394F4
:102528001A6B42F001021A631A6B02F0010203925D
:10253800039A04941A6B42F002021A631B6B03F0AD
:1025480002030493049B0F4D224620212846FEF7E0
:1025580073FF4FF4005305930B4B0693079405A99B
:102568000A48FEF797FE2023059301230693079454
:10257800089405A92846FEF78DFE0BB030BD00BFB4
:10258800003802400000024000002110000802400C
:1025980000B583B000210191094B1A6B42F4001277
:1025A8001A631B6B03F400130193019B0A460F2067
:1025B800FEF70EFC0F20FEF73FFC03B05DF804FBAE
:1025C8000038024030B58FB000240A940B940C9464
:1025D8000D94089409940194029403940494059426
:1025E80006940794164D174B2B6009236B60AC605B
:1025F80040F24733EB602C61AC612846FFF77EFB65
:102608004FF480530A930AA92846FFF755FC284639
:10261800FFF78DFB0894099408A92846FFF774FD75
:1026280060230193029403940594224601A9284645
:10263800FFF7C8FB284600F00DF90FB030BD00BF0A
:102648002C0000200004004008B50848084B03602F
:102658004FF4E133436000238360C36003610C22BD
:1026680042618361C361FFF70DFF08BDCC00002004
:102678000044004030B595B03022002108A801F090
:102688001DF8002403940494059406940794019477
:102698001B4B1A6C42F080521A641B6C03F0805377
:1026A8000193019B0294174A136823F4404343F4AF
:1026B80000431360136803F440430293029B02250E
:1026C800089501230B9310230C930E950F941093E8
:1026D8004FF4A8731193042312930723139308A8A4
:1026E800FEF7B0FE0F230393049505944FF480532F
:1026F80006930794294603A8FFF7DCF815B030BD08
:10270800003802400070004010B5E4B0FEF722FB2C
:10271800FFF7B0FFFFF7E6FEFFF73AFFFFF752FFBC
:10272800FFF792FF002420E02046FDF7A3FE16A342
:10273800D3E90023FDF708FFFEF718F900EE100AA9
:1027480000F04EF9F7EE007A70EE277A9FED0C7ADA
:1027580067EE877AB6EE007A67EE877AFCEEE77A5C
:1027680017EE903A2DF814300134C72CDCDDC8235D
:102778006A4600210348FFF71DFCFEE7AFF300801F
:10278800000047432C0000203355302AA913A03FEE
:102798007047000000B583B0002100910C4B5A6CC3
:1027A80042F480425A645A6C02F480420092009AC1
:1027B80001911A6C42F080521A641B6C03F080532A
:1027C8000193019B0720FEF7F1FA03B05DF804FBC3
:1027D8000038024002681B4B9A4200D0704710B57F
:1027E80082B0044600230193174A116C41F002019C
:1027F8001164126C02F002020192019A1348144A01
:1028080002604FF02062426040228260C3604FF451
:10281800806202614FF4006242614FF400528261AB
:102828004FF48072C26103624362FEF7A5FB28B9C8
:10283800064B6362A3639C6302B010BDFFF7A8FF59
:10284800F6E700BF00040040003802406C0000209A
:102858007060024000B587B0002301930293039390
:102868000493059302680E4B9A4202D007B05DF8B4
:1028780004FB002300930B4B1A6B42F001021A630E
:102888001B6B03F001030093009B40230193022379
:102898000293059301A90448FEF7FCFCE6E700BF94
:1028A80000040040003802400000024000B589B032
:1028B8000023039304930593069307930268144B2C
:1028C8009A4202D009B05DF804FB0021019103F59A
:1028D800FA331A6C42F400321A641A6C02F40032A9
:1028E8000192019A02911A6B42F001021A631B6B62
:1028F80003F001030293029B0C2303930223049326
:102908000723079303A90348FEF7C4FCDAE700BFCF
:1029180000440040000002407047FEE7FEE7FEE783
:10292800FEE770477047704708B5FEF72DFA08BDF7
:1029380008B50248FEF7C0FB08BD00BF6C000020C8
:102948000F49D1F8883043F47003C1F888300D4B33
:102958001A6842F001021A60002098601A6822F092
:10296800847222F480321A60074A5A601A6822F484
:1029780080221A60D8604FF000638B60704700BFF8
:1029880000ED00E00038024010300024DFF834D0B9
:10299800002103E00C4B5B58435004310B480C4BAF
:1029A80042189A42F6D30B4A02E0002342F8043B4D
:1029B800094B9A42F9D3FFF7C3FF00F05BFEFFF71C
:1029C800A3FE704700800120EC3A000800000020B8
:1029D8000C0000200C0000200C010020FEE7000085
:1029E80000B510EE103A214A23F00043934283B019
:1029F8001ADDB3F1FF4F04DB30EE400A03B05DF897
:102A080004FB684600F036F800F00300012813D0F4
:102A1800022820D0B8B1DDED010A9DED000A00F0D2
:102A280075F9B1EE400AE9E70020DFED110A00F080
:102A380017FD03B05DF804FBDDED010A9DED000A0A
:102A480000F064F9DAE70120DDED010A9DED000AE6
:102A580000F006FDD2E70120DDED010A9DED000A38
:102A680000F0FEFCB1EE400AC8E700BFD80F493FAE
:102A78000000000070B510EE103A964A23F00044AA
:102A8800944286B0054669DD934A944210EE106A76
:102A98001ADC002B24F00F04DFED907A904A64DDF5
:102AA800944270EE677A00F0CF809FED8E7A77EED1
:102AB800C76A012077EEE67AC5ED006A77EEC77A35
:102AC800C5ED017A06B070BD874A944261DDB4F164
:102AD800FF4F80F2B180E215863AA4EBC25307EEAD
:102AE800903ABDEEE77ADFED816AB8EEC77A77EE05
:102AF800C77A8DED037A67EEA67ABDEEE77AB8EE6F
:102B0800C77A77EEC77A8DED047A67EEA67AF5EE86
:102B1800407AF1EE10FACDED057A40F0C780B5EEB7
:102B2800407AF1EE10FA0CBF01230223704901919B
:102B38000221009103A8294600F06AF9002E12DA52
:102B480095ED007AD5ED017AB1EE477AF1EE677A24
:102B5800404285ED007AC5ED017A04E0002285ED5A
:102B6800000A4260002006B070BD944270EE277AD9
:102B780000F089809FED5B7A77EE876A4FF0FF302F
:102B880077EEE67AC5ED006A77EE877AC5ED017AC9
:102B9800E9E700F0ADFCDFED576ADFED505A9FED35
:102BA800517AF6EE007AE0EE267AFDEEE77A17EE35
:102BB800900AF8EEE76A1F28B1EE666AA6EE250AC3
:102BC80066EE877A52DD30EE677A17EE103AE41532
:102BD800C3F3C753E31A082B52DDDFED477A9FEDA5
:102BE800477AF0EE405AE6EE275A30EE650AA6EE2E
:102BF800270AF0EE407AD6EE877A35EEE77A17EEB6
:102C0800103AC3F3C753E41A192C51DC85ED007A46
:102C1800B0EE650A30EE470A002E30EE670A85ED01
:102C2800010AA0DAB1EE477AB1EE400A85ED007AE2
:102C380085ED010A404296E770EE407A0020C5ED26
:102C4800017AC5ED007A8EE7DFED2B6A9FED2B7ACE
:102C580077EEE67A012077EEC76A77EEE67AC5ED79
:102C6800006A77EEC77AC5ED017A7CE7421E244BED
:102C780053F8223024F0FF029A4230EE677AA4D04B
:102C880085ED007AC6E7DFED1C6A9FED1C7A77EECA
:102C9800A67A4FF0FF3077EE876A77EEE67AC5EDD1
:102CA800006A77EE877AC5ED017A5CE703233DE792
:102CB8009FED147A9FED145AB0EE650AA6EE070A46
:102CC80075EEC07AE6EE077AD6EE857A30EE677A48
:102CD800D6E700BFD80F493FE3CB1640800FC93F66
:102CE800D00FC93F43443537800F49430000804324
:102CF8008C37000884F9223F0044353708A3852E15
:102D08000C37000800A3852E32318D2410EE103ABE
:102D180023F00043B3F1485F2CDAFDEEC07A17EEDA
:102D2800903A002B5BD020EE007ADFED314A9FED20
:102D3800315ADFED315A9FED316ADFED317ADFED3F
:102D4800316AA7EE245AE7EE055AA7EE256AE7EEA0
:102D5800067AE7EE276A66EE876A60EEC00AB6EE84
:102D6800006AE7EE260AF7EE007AD7EE060A37EE93
:102D7800E00A704720EE007ADFED1D4A9FED1D5AEC
:102D8800DFED1D5A9FED1D6ADFED1D7ADFED1D6A2F
:102D98001D4AA7EE245A9342E5EE075AA5EE876A24
:102DA800E6EE077AE7EE876A66EE876AD5DD174AA8
:102DB800934217DC03F17F4307EE903AB7EE006ABF
:102DC80036EE676A60EEC00AF6EE005AE7EE260AAB
:102DD800D7EE257A77EEE07A36EE670A7047B7EED7
:102DE800000A7047B6EE076AF5EE027AEAE700BF16
:102DF8004ED747ADF6740F317CF293B4010DD0373E
:102E0800610BB6BAABAA2A3D9999993E0000483F92
:102E18002DE9F04F2DED048BD7B003F1FF39029364
:102E2800D31E48BF131DB24C649D0591DB1023EAE5
:102E3800E37354F82560039303F10108A2EBC80873
:102E480016EB09028646A3EB090316D41A449FED34
:102E5800A97A6598511C1AAA002BA4BF50F82340E0
:102E680007EE904A03F10103ACBFF8EEE77AF0EE03
:102E7800477A8B42E2EC017AEED1029B002E4FEAB0
:102E880083044FEA860A1DDB1AAB181943AA734656
:102E9800191902EB0A0742ADF446B9F1000FDFED4C
:102EA800957A09DB02466346F3EC016A32ED017A52
:102EB8008B42E6EE877AF7D1E5EC017ABD4200F164
:102EC8000400EAD1AAF1080306ADEB1804939FEDBC
:102ED8008B9ADFED898A009605ABB34674449A4411
:102EE80042AF76464FEA8B0156AB0B44BBF1000F5D
:102EF80013ED140A16DD07EB8B032A4660EE097AF8
:102F0800B0EE407AFDEEE77A73ED016AF8EEE77A03
:102F1800BB42A7EEE87A37EEA60ABDEEC77AA2EC66
:102F2800017AEBD14046019100F030FBB0EE408AC7
:102F3800B4EE000A28EE000A00F0E2FAF2EE007A97
:102F4800A0EE678AB8F1000F0199FDEEC89AF8EE75
:102F5800E97A38EE678A40F3C4800BF1FF3CC8F188
:102F6800080355F82C2042FA03F000FA03F3D31AA9
:102F780045F82C3019EE90CA8444C8F1070209EECE
:102F880090CA43FA02F2002A31DD19EE903ABBF1F9
:102F9800000F03F1010309EE903A40F329822868F3
:102FA800002840F08680BBF1010F0BD0AE464FF0F1
:102FB800010C5EF8040F0CF1010300287CD19B453D
:102FC8009C46F6D1B8F1000F0EDDB8F1010F00F004
:102FD8003281B8F1020F07D10BF1FF3155F82130DA
:102FE80003F03F0345F82130022A00F01281B5EEC4
:102FF800408AF1EE10FA40F09580009B0BF1FF3CFF
:1030080063450EDC0BF18041013905EB810100209D
:1030180051F80439514540EA0300F9D1002840F03D
:103028001381009B013B55F82330002B40F00081B1
:10303800049B4FF0010C53F804290CF1010C002AF1
:10304800F9D0DC440BF1010EE64530DC039B029A13
:103058000EEB03015A4403EB0C0B1AAB01F1804150
:1030680003EB8202659B013903EB810107EB8E0EAE
:1030780003EB8B0B51F8043F9FED1E7A07EE903A55
:10308800F8EEE77A1046B9F1000FE0EC017A09DBB7
:10309800334601E072ED017AF3EC016AA342A6EE31
:1030A800A77AF7D15945AEEC017A0246E2D1E34658
:1030B80018E701234FF0000CC0F580709B4545F8D8
:1030C8002C000CDD55F82300294405EB830300E0B0
:1030D8001868C0F1FF0043F8040B8B42F8D10120B7
:1030E80070E70FD10BF1FF3355F8232012124AE78E
:1030F800D03A000800000000000080430000803B38
:103108000000C93FF6EE007AB4EEE78AF1EE10FA55
:1031180080F25881B5EE408AF1EE10FA4FF00002C5
:103128003FF46BAFB0EE480AC8F100009146009E2C
:1031380000F02CFA1FED107AB4EEC70AF1EE10FA7F
:10314800C0F258815FED137A60EE277A0BF1010324
:10315800FDEEE77A08F10808F8EEE77AA7EEC70A65
:10316800FDEEE77ABDEEC00A10EE102A45F82B20D6
:1031780017EE902A45F823204046B7EE000A009340
:1031880000F004FA009B002BC0F24B81980042AA81
:1031980000F1040C1FED277A1044011D05EB0C0209
:1031A80072ED017AF8EEE77AAA4267EE807A20EEAD
:1031B800070A61ED017AF3D10DF1B80E1FED306AFF
:1031C8000546774603F101080024002EC0F2058168
:1031D800A148DFEDA27A2946B0EE467A002203E044
:1031E800A24208DCB0EC017AF1EC016A01329642A5
:1031F800E6EE877AF4DA01344445E7EC017AA5F182
:103208000405E2D1649A032A53D8DFE802F0CAB66B
:10321800B65BB7EE000A30EE488A00283FF4E7AE06
:103228004046019200F0B2F9019A38EE408ADEE693
:103238004FF0010C05E70BF1FF3155F8213003F091
:103248007F0345F82130CFE6914655F82C20009EA3
:103258006346A8F10808002A8ED10CF18042013A91
:1032680005EB820252F80419013BA8F1080800296D
:10327800F8D081E74A46DFED797A002A40F0C2802B
:103288009DED2E7A059A002BC2ED007A77EE677ACB
:103298000CDD2FA90122B1EC017A0132934277EEBD
:1032A800877AF8DA4B46002B40F0B880059BC3EDCF
:1032B800017A19EE903A03F0070057B0BDEC048B81
:1032C800BDE8F08F002B40F3C480980056AA024452
:1032D8000DF1B80E03F1804152ED286A01390EEB69
:1032E800830272ED017A37EEA67A964577EEC77AB1
:1032F80082ED007A77EEA67AF0EE476AC2ED017A9F
:10330800EFD1012B40F3A58056AB184489000B1D63
:1033180050ED286A73442FAA73ED017A37EEA67A26
:103328009A4277EEC77A83ED007A77EEA67AF0EEC6
:10333800476AC3ED017AEFD10831DFED487A0EEB29
:1033480001030EF1080E33ED017A9E4577EE877A78
:10335800F9D14B46DDED2E6A9DED2F7A2BB1F1EEBA
:10336800666AB1EE477AF1EE677A059BC3ED006AAB
:1033780083ED017AC3ED027A9BE7002BFFF67AAF63
:103388002EA901EB8302DFED357A043232ED017AA2
:10339800914277EE877AF9D14A46002A3FF470AF16
:1033A80030E0DFED2E7AF4443CED017AE64577EE25
:1033B800877AF9D14B460BB1F1EE677A059BC3EDDD
:1033C800007A76E719EE903ABBF1000F03F101039A
:1033D80009EE903A37DD0222E1E5DFED207A01348B
:1033E8004445E7EC017AA5F104057FF4EEAE09E760
:1033F8000020E7E5BDEEC00A5B4610EE102A45F84E
:103408002B20B9E6DDED2E6A059AB1EE677A002B1E
:1034180076EEE77A82ED007A3FF73BAFF1EE677A16
:1034280044E7649A032A3FF644AF01A151F822F019
:10343800493400088333000883330008CD3200087C
:10344800DFED067AB6E7F7EE007A37EEC88A022291
:10345800CDE5DFED027A7CE7A83A0008000000001D
:1034680010EE103A23F00043B3F1485F04DAFDEEA2
:10347800C07A17EE903A23B360EE007A9FED155AA2
:10348800DFED155A9FED156ADFED156A9FED157A88
:10349800E7EE855A20EE275AA5EEA76AE6EE276AD8
:1034A800A6EEA77A70B127EE457AF6EE006AA0EE8E
:1034B800A67ADFED0D6AD7EE270AE5EE260A30EE8A
:1034C800600A7047DFED096AE7EE876AA6EE850AAB
:1034D800704700BFD3C92E2F342FD7B21BEF383611
:1034E800010D50B98988083CABAA2A3EABAA2ABE6E
:1034F80010EE103A23F0004300EE103A704700BF78
:1035080010EE102A22F00041CB0D7F3B162B1CDC5D
:10351800002B10EE100A1EDB194919410A4227D068
:10352800DFED187A70EE277AF5EEC07AF1EE10FA30
:103538001EDD002A04DA4FF4000242FA03F31844AD
:1035480020EA010300EE103A7047B1F1FF4F0FD3A4
:1035580030EE000A7047DFED0B7A70EE277AF5EE51
:10356800C07AF1EE10FA03DD002A02DB9FED060AAD
:1035780070470029FFEE007A18BFB0EE670A70475F
:10358800FFFF7F00CAF249710000000008B510EE85
:10359800103A33F000422DED028B11D0B2F1FF4FFB
:1035A80011D2B2F5000F13D3D20D0244FE2A1CDC4F
:1035B800002A2ADD23F0FF4343EAC25300EE103A03
:1035C800BDEC028B08BDBDEC028B30EE000A08BDD5
:1035D8001D4BDFED1E7A984220EE270A10DB10EE15
:1035E800103AC3F3C752193ADFE79FED198AF0EE94
:1035F800400AB0EE480A00F031F820EE080ADFE78A
:10360800DFED140A20EE200ADAE712F1160F0EDABF
:103618004CF250339842E8DC9FED0E8AF0EE400AF7
:10362800B0EE480A00F01AF820EE080AC8E7193286
:1036380023F0FF4343EAC253DFED077A00EE103A66
:1036480020EE270ABCE700BFB03CFFFF0000004C9B
:10365800CAF249716042A20D0000003310EE103A20
:1036680010EE902A23F0004302F00042134300EECC
:10367800103A704770B50D4E0D4CA41BA4100025D0
:10368800A54209D10B4E0C4C00F020F8A41BA41045
:103698000025A54205D170BD56F82530984701355B
:1036A800EEE756F8253098470135F2E7E43A000886
:1036B800E43A0008E43A0008E83A000802440346FD
:1036C800934200D1704703F8011BF9E7F8B500BF32
:1036D800F8BC08BC9E467047F8B500BFF8BC08BCEB
:0436E8009E46704743
:1036EC000006101600061016000000000000000076
:1036FC00010203040607080900000000010203048C
:10370C00000FC93F000F494000CB9640000FC94045
:10371C000053FB4000CB164100ED2F41000F4941F7
:10372C000031624100537B41003A8A4100CB964103
:10373C00005CA34100EDAF41007EBC41000FC941CC
:10374C0000A0D5410031E24100C2EE410053FB41E3
:10375C0000F20342003A0A420083104200CB1642A8
:10376C0000141D42005C234200A5294200ED2F42AB
:10377C0000363642007E3C4200C74242000F4942AE
:10378C00A2000000F9000000830000006E000000A1
:10379C004E0000004400000015000000290000004D
:1037AC00FC0000002700000057000000D1000000C2
:1037BC00F500000034000000DD000000C000000037
:1037CC00DB00000062000000950000009900000082
:1037DC003C0000004300000090000000410000008D
:1037EC00FE0000005100000063000000AB00000070
:1037FC00DE000000BB000000C500000061000000FE
:10380C00B7000000240000006E0000003A00000029
:10381C00420000004D000000D2000000E00000005B
:10382C0006000000490000002E000000EA00000025
:10383C0009000000D1000000920000001C000000F4
:10384C00FE0000001D000000EB0000001C0000004A
:10385C00B100000029000000A70000003E0000009D
:10386C00E80000008200000035000000F5000000B8
:10387C002E000000BB00000044000000840000008B
:10388C00E90000009C000000700000002600000011
:10389C00B40000005F0000007E000000410000004A
:1038AC003900000091000000D60000003900000033
:1038BC00830000005300000039000000F4000000F9
:1038CC009C000000840000005F0000008B000000E2
:1038DC00BD000000F9000000280000003B000000C3
:1038EC001F000000F800000097000000FF0000001F
:1038FC00DE00000005000000980000000F00000032
:10390C00EF0000002F000000110000008B000000F1
:10391C005A0000000A0000006D0000001F000000AB
:10392C006D000000360000007E000000CF0000009B
:10393C0027000000CB00000009000000B7000000C9
:10394C004F000000460000003F0000006600000031
:10395C009E0000005F000000EA0000002D00000047
:10396C007500000027000000BA000000C70000002E
:10397C00EB000000E5000000F10000007B000000FF
:10398C003D0000000700000039000000F7000000B7
:10399C008A0000005200000092000000EA000000C3
:1039AC006B000000FB0000005F000000B100000095
:1039BC001F0000008D0000005D00000008000000EA
:1039CC00560000000300000030000000460000001C
:1039DC00FC0000007B0000006B000000AB0000004E
:1039EC00F0000000CF000000BC0000002000000030
:1039FC009A000000F4000000360000001D000000DA
:103A0C00A9000000E300000091000000610000002C
:103A1C005E000000E60000001B0000000800000033
:103A2C006500000099000000850000005F000000A8
:103A3C0014000000A000000068000000400000001E
:103A4C008D000000FF000000D80000008000000086
:103A5C004D00000073000000270000003100000042
:103A6C0006000000060000001500000056000000D3
:103A7C00CA00000073000000A8000000C90000008C
:103A8C0060000000E20000007B000000C0000000AD
:103A9C008C0000006B0000000000C93F0000F039F2
:103AAC000000DA370000A2330000842E0000502BF7
:103ABC000000C2270000D0220000C41F0000C61B5B
:103ACC00000044170400000007000000090000007B
:083ADC0068CFFF7F010000002C
:043AE400BD01000818
:043AE8009901000838
:0C3AEC0001000000100000000024F400A5
:040000050800299531
:00000001FF
